{
  "_format": "hh-sol-artifact-1",
  "contractName": "EstateFactory",
  "sourceName": "contracts/FactoryEstate.sol",
  "abi": [
    {
      "inputs": [],
      "stateMutability": "nonpayable",
      "type": "constructor"
    },
    {
      "anonymous": false,
      "inputs": [
        {
          "indexed": true,
          "internalType": "address",
          "name": "account",
          "type": "address"
        },
        {
          "indexed": true,
          "internalType": "address",
          "name": "operator",
          "type": "address"
        },
        {
          "indexed": false,
          "internalType": "bool",
          "name": "approved",
          "type": "bool"
        }
      ],
      "name": "ApprovalForAll",
      "type": "event"
    },
    {
      "anonymous": false,
      "inputs": [
        {
          "indexed": true,
          "internalType": "address",
          "name": "operator",
          "type": "address"
        },
        {
          "indexed": true,
          "internalType": "address",
          "name": "from",
          "type": "address"
        },
        {
          "indexed": true,
          "internalType": "address",
          "name": "to",
          "type": "address"
        },
        {
          "indexed": false,
          "internalType": "uint256[]",
          "name": "ids",
          "type": "uint256[]"
        },
        {
          "indexed": false,
          "internalType": "uint256[]",
          "name": "values",
          "type": "uint256[]"
        }
      ],
      "name": "TransferBatch",
      "type": "event"
    },
    {
      "anonymous": false,
      "inputs": [
        {
          "indexed": true,
          "internalType": "address",
          "name": "operator",
          "type": "address"
        },
        {
          "indexed": true,
          "internalType": "address",
          "name": "from",
          "type": "address"
        },
        {
          "indexed": true,
          "internalType": "address",
          "name": "to",
          "type": "address"
        },
        {
          "indexed": false,
          "internalType": "uint256",
          "name": "id",
          "type": "uint256"
        },
        {
          "indexed": false,
          "internalType": "uint256",
          "name": "value",
          "type": "uint256"
        }
      ],
      "name": "TransferSingle",
      "type": "event"
    },
    {
      "anonymous": false,
      "inputs": [
        {
          "indexed": false,
          "internalType": "string",
          "name": "value",
          "type": "string"
        },
        {
          "indexed": true,
          "internalType": "uint256",
          "name": "id",
          "type": "uint256"
        }
      ],
      "name": "URI",
      "type": "event"
    },
    {
      "inputs": [
        {
          "internalType": "address",
          "name": "account",
          "type": "address"
        },
        {
          "internalType": "uint256",
          "name": "id",
          "type": "uint256"
        }
      ],
      "name": "balanceOf",
      "outputs": [
        {
          "internalType": "uint256",
          "name": "",
          "type": "uint256"
        }
      ],
      "stateMutability": "view",
      "type": "function"
    },
    {
      "inputs": [
        {
          "internalType": "address[]",
          "name": "accounts",
          "type": "address[]"
        },
        {
          "internalType": "uint256[]",
          "name": "ids",
          "type": "uint256[]"
        }
      ],
      "name": "balanceOfBatch",
      "outputs": [
        {
          "internalType": "uint256[]",
          "name": "",
          "type": "uint256[]"
        }
      ],
      "stateMutability": "view",
      "type": "function"
    },
    {
      "inputs": [
        {
          "internalType": "uint256",
          "name": "estateId",
          "type": "uint256"
        }
      ],
      "name": "getEstateAuctionListing",
      "outputs": [
        {
          "internalType": "address",
          "name": "",
          "type": "address"
        }
      ],
      "stateMutability": "view",
      "type": "function"
    },
    {
      "inputs": [
        {
          "internalType": "uint256",
          "name": "estateId",
          "type": "uint256"
        }
      ],
      "name": "getEstateInvestmentListing",
      "outputs": [
        {
          "internalType": "address",
          "name": "",
          "type": "address"
        }
      ],
      "stateMutability": "view",
      "type": "function"
    },
    {
      "inputs": [
        {
          "internalType": "uint256",
          "name": "estateId",
          "type": "uint256"
        }
      ],
      "name": "getEstateListing",
      "outputs": [
        {
          "components": [
            {
              "internalType": "uint256",
              "name": "estateID",
              "type": "uint256"
            },
            {
              "internalType": "address payable",
              "name": "estateOwner",
              "type": "address"
            },
            {
              "internalType": "uint256",
              "name": "estateEvaluation",
              "type": "uint256"
            },
            {
              "internalType": "string",
              "name": "estateMetadata",
              "type": "string"
            },
            {
              "internalType": "bool",
              "name": "isListedForAuction",
              "type": "bool"
            },
            {
              "internalType": "bool",
              "name": "isListedForInvestment",
              "type": "bool"
            }
          ],
          "internalType": "struct EstateFactory.Estate",
          "name": "",
          "type": "tuple"
        }
      ],
      "stateMutability": "view",
      "type": "function"
    },
    {
      "inputs": [],
      "name": "getNumEstates",
      "outputs": [
        {
          "internalType": "uint256",
          "name": "",
          "type": "uint256"
        }
      ],
      "stateMutability": "view",
      "type": "function"
    },
    {
      "inputs": [
        {
          "internalType": "address",
          "name": "account",
          "type": "address"
        },
        {
          "internalType": "address",
          "name": "operator",
          "type": "address"
        }
      ],
      "name": "isApprovedForAll",
      "outputs": [
        {
          "internalType": "bool",
          "name": "",
          "type": "bool"
        }
      ],
      "stateMutability": "view",
      "type": "function"
    },
    {
      "inputs": [
        {
          "internalType": "uint256",
          "name": "estateId",
          "type": "uint256"
        }
      ],
      "name": "listEstateForAuction",
      "outputs": [],
      "stateMutability": "nonpayable",
      "type": "function"
    },
    {
      "inputs": [
        {
          "internalType": "uint256",
          "name": "estateId",
          "type": "uint256"
        }
      ],
      "name": "listEstateForInvestment",
      "outputs": [],
      "stateMutability": "nonpayable",
      "type": "function"
    },
    {
      "inputs": [
        {
          "internalType": "address",
          "name": "from",
          "type": "address"
        },
        {
          "internalType": "address",
          "name": "to",
          "type": "address"
        },
        {
          "internalType": "uint256[]",
          "name": "ids",
          "type": "uint256[]"
        },
        {
          "internalType": "uint256[]",
          "name": "amounts",
          "type": "uint256[]"
        },
        {
          "internalType": "bytes",
          "name": "data",
          "type": "bytes"
        }
      ],
      "name": "safeBatchTransferFrom",
      "outputs": [],
      "stateMutability": "nonpayable",
      "type": "function"
    },
    {
      "inputs": [
        {
          "internalType": "address",
          "name": "from",
          "type": "address"
        },
        {
          "internalType": "address",
          "name": "to",
          "type": "address"
        },
        {
          "internalType": "uint256",
          "name": "id",
          "type": "uint256"
        },
        {
          "internalType": "uint256",
          "name": "amount",
          "type": "uint256"
        },
        {
          "internalType": "bytes",
          "name": "data",
          "type": "bytes"
        }
      ],
      "name": "safeTransferFrom",
      "outputs": [],
      "stateMutability": "nonpayable",
      "type": "function"
    },
    {
      "inputs": [
        {
          "internalType": "address",
          "name": "operator",
          "type": "address"
        },
        {
          "internalType": "bool",
          "name": "approved",
          "type": "bool"
        }
      ],
      "name": "setApprovalForAll",
      "outputs": [],
      "stateMutability": "nonpayable",
      "type": "function"
    },
    {
      "inputs": [
        {
          "internalType": "bytes4",
          "name": "interfaceId",
          "type": "bytes4"
        }
      ],
      "name": "supportsInterface",
      "outputs": [
        {
          "internalType": "bool",
          "name": "",
          "type": "bool"
        }
      ],
      "stateMutability": "view",
      "type": "function"
    },
    {
      "inputs": [
        {
          "internalType": "string",
          "name": "_metadata",
          "type": "string"
        },
        {
          "internalType": "uint256",
          "name": "_evaluation",
          "type": "uint256"
        }
      ],
      "name": "tokenizeEstate",
      "outputs": [],
      "stateMutability": "nonpayable",
      "type": "function"
    },
    {
      "inputs": [
        {
          "internalType": "uint256",
          "name": "estateID",
          "type": "uint256"
        },
        {
          "internalType": "address payable",
          "name": "newOwner",
          "type": "address"
        }
      ],
      "name": "updateOwner",
      "outputs": [],
      "stateMutability": "nonpayable",
      "type": "function"
    },
    {
      "inputs": [
        {
          "internalType": "uint256",
          "name": "",
          "type": "uint256"
        }
      ],
      "name": "uri",
      "outputs": [
        {
          "internalType": "string",
          "name": "",
          "type": "string"
        }
      ],
      "stateMutability": "view",
      "type": "function"
    }
  ],
  "bytecode": "0x608060405260016003553480156200001657600080fd5b50604080516020810190915260008152620000318162000038565b50620001bb565b6002620000468282620000ef565b5050565b634e487b7160e01b600052604160045260246000fd5b600181811c908216806200007557607f821691505b6020821081036200009657634e487b7160e01b600052602260045260246000fd5b50919050565b601f821115620000ea57600081815260208120601f850160051c81016020861015620000c55750805b601f850160051c820191505b81811015620000e657828155600101620000d1565b5050505b505050565b81516001600160401b038111156200010b576200010b6200004a565b62000123816200011c845462000060565b846200009c565b602080601f8311600181146200015b5760008415620001425750858301515b600019600386901b1c1916600185901b178555620000e6565b600085815260208120601f198616915b828110156200018c578886015182559484019460019091019084016200016b565b5085821015620001ab5787850151600019600388901b60f8161c191681555b5050505050600190811b01905550565b615f0580620001cb6000396000f3fe60806040523480156200001157600080fd5b5060043610620001145760003560e01c80634e1273f411620000a3578063d18ff5f8116200006e578063d18ff5f814620002e0578063e6efd4d01462000306578063e985e9c5146200031d578063f242432a146200035c57600080fd5b80634e1273f4146200023b5780637192711f1462000261578063a22cb46514620002b2578063ba1b60fc14620002c957600080fd5b80632eb2c2d611620000e45780632eb2c2d614620001d65780633ba44be614620001ef5780633d55daf814620002065780634a2454be146200020f57600080fd5b8062fdd58e146200011957806301ffc9a714620001435780630e89341c146200016b5780631a05b0631462000191575b600080fd5b620001306200012a3660046200172b565b62000373565b6040519081526020015b60405180910390f35b6200015a6200015436600462001771565b6200040d565b60405190151581526020016200013a565b620001826200017c36600462001791565b62000460565b6040516200013a9190620017ff565b620001bd620001a236600462001791565b6000908152600560205260409020546001600160a01b031690565b6040516001600160a01b0390911681526020016200013a565b620001ed620001e736600462001981565b620004fc565b005b620001ed6200020036600462001a3d565b62000596565b60035462000130565b620001bd6200022036600462001791565b6000908152600660205260409020546001600160a01b031690565b620002526200024c36600462001a9b565b620006fe565b6040516200013a919062001bb4565b620001ed6200027236600462001bc9565b60009182526004602081905260409092206001810180546001600160a01b0319166001600160a01b03939093169290921790915501805461ffff19169055565b620001ed620002c336600462001bfc565b6200083d565b620001ed620002da36600462001791565b6200084e565b620002f7620002f136600462001791565b62000992565b6040516200013a919062001c33565b620001ed6200031736600462001791565b62000ac5565b6200015a6200032e36600462001c9c565b6001600160a01b03918216600090815260016020908152604080832093909416825291909152205460ff1690565b620001ed6200036d36600462001ccf565b62000bed565b60006001600160a01b038316620003e45760405162461bcd60e51b815260206004820152602a60248201527f455243313135353a2061646472657373207a65726f206973206e6f742061207660448201526930b634b21037bbb732b960b11b60648201526084015b60405180910390fd5b506000818152602081815260408083206001600160a01b03861684529091529020545b92915050565b60006001600160e01b03198216636cdb3d1360e11b14806200043f57506001600160e01b031982166303a24d0760e21b145b806200040757506301ffc9a760e01b6001600160e01b031983161462000407565b606060028054620004719062001d40565b80601f01602080910402602001604051908101604052809291908181526020018280546200049f9062001d40565b8015620004f05780601f10620004c457610100808354040283529160200191620004f0565b820191906000526020600020905b815481529060010190602001808311620004d257829003601f168201915b50505050509050919050565b6001600160a01b0385163314806200051b57506200051b85336200032e565b620005805760405162461bcd60e51b815260206004820152602e60248201527f455243313135353a2063616c6c6572206973206e6f7420746f6b656e206f776e60448201526d195c881bdc88185c1c1c9bdd995960921b6064820152608401620003db565b6200058f858585858562000c80565b5050505050565b60008111620006015760405162461bcd60e51b815260206004820152603060248201527f4576616c756174696f6e206f662074686520457374617465206d75737420626560448201526f206d6f7265207468616e207a65726f2160801b6064820152608401620003db565b60038054339181906000620006168362001d92565b919050555062000639828260016040518060200160405280600081525062000ef4565b620006448462000f08565b6040805160c0810182528281523360208083019182528284018781526060840189815260006080860181905260a086018190528781526004909352949091208351815591516001830180546001600160a01b0319166001600160a01b0390921691909117905551600282015591519091906003820190620006c6908262001dfd565b5060808201516004909101805460a09093015115156101000261ff00199215159290921661ffff199093169290921717905550505050565b60608151835114620007655760405162461bcd60e51b815260206004820152602960248201527f455243313135353a206163636f756e747320616e6420696473206c656e677468604482015268040dad2e6dac2e8c6d60bb1b6064820152608401620003db565b6000835167ffffffffffffffff81111562000784576200078462001814565b604051908082528060200260200182016040528015620007ae578160200160208202803683370190505b50905060005b8451811015620008355762000802858281518110620007d757620007d762001eca565b6020026020010151858381518110620007f457620007f462001eca565b602002602001015162000373565b82828151811062000817576200081762001eca565b60209081029190910101526200082d8162001d92565b9050620007b4565b509392505050565b6200084a33838362000f16565b5050565b600042336040516020016200087f92919091825260601b6bffffffffffffffffffffffff1916602082015260340190565b60405160208183030381529060405280519060200120905060006200092560008360405180602001620008b290620016f9565b601f1982820381018352601f90910116604081815260008981526004602090815291902060020154620008f0928a9201918252602082015260400190565b60408051601f198184030181529082905262000910929160200162001ee0565b60405160208183030381529060405262000ff8565b90506200094633828560016040518060200160405280600081525062001109565b600092835260056020908152604080852080546001600160a01b039094166001600160a01b0319909416939093179092556004908190529220909101805461ff00191661010017905550565b6040805160c080820183526000808352602080840182905283850182905260608085018190526080850183905260a085018390528683526004825291859020855193840186528054845260018101546001600160a01b031691840191909152600281015494830194909452600384018054939492939184019162000a169062001d40565b80601f016020809104026020016040519081016040528092919081815260200182805462000a449062001d40565b801562000a955780601f1062000a695761010080835404028352916020019162000a95565b820191906000526020600020905b81548152906001019060200180831162000a7757829003601f168201915b50505091835250506004919091015460ff8082161515602084015261010090910416151560409091015292915050565b6000423360405160200162000af692919091825260601b6bffffffffffffffffffffffff1916602082015260340190565b604051602081830303815290604052805190602001209050600062000b836000836040518060200162000b299062001707565b601f1982820381018352601f9091011660408181526000898152600460209081529082902060028101546001909101549184018b9052918301919091524260608301526001600160a01b0316608082015260a001620008f0565b905062000ba433828560016040518060200160405280600081525062001109565b600092835260066020908152604080852080546001600160a01b0319166001600160a01b0394909416939093179092556004908190529220909101805460ff1916600117905550565b6001600160a01b03851633148062000c0c575062000c0c85336200032e565b62000c715760405162461bcd60e51b815260206004820152602e60248201527f455243313135353a2063616c6c6572206973206e6f7420746f6b656e206f776e60448201526d195c881bdc88185c1c1c9bdd995960921b6064820152608401620003db565b6200058f858585858562001109565b815183511462000ce45760405162461bcd60e51b815260206004820152602860248201527f455243313135353a2069647320616e6420616d6f756e7473206c656e677468206044820152670dad2e6dac2e8c6d60c31b6064820152608401620003db565b6001600160a01b03841662000d4a5760405162461bcd60e51b815260206004820152602560248201527f455243313135353a207472616e7366657220746f20746865207a65726f206164604482015264647265737360d81b6064820152608401620003db565b3360005b845181101562000e8257600085828151811062000d6f5762000d6f62001eca565b60200260200101519050600085838151811062000d905762000d9062001eca565b602090810291909101810151600084815280835260408082206001600160a01b038e16835290935291909120549091508181101562000e255760405162461bcd60e51b815260206004820152602a60248201527f455243313135353a20696e73756666696369656e742062616c616e636520666f60448201526939103a3930b739b332b960b11b6064820152608401620003db565b6000838152602081815260408083206001600160a01b038e8116855292528083208585039055908b1682528120805484929062000e6490849062001f13565b925050819055505050508062000e7a9062001d92565b905062000d4e565b50846001600160a01b0316866001600160a01b0316826001600160a01b03167f4a39dc06d4c0dbc64b70af90fd698a233a518aa5d07e595d983b8c0526c8f7fb878760405162000ed492919062001f29565b60405180910390a462000eec818787878787620012c0565b505050505050565b62000f028484848462001481565b50505050565b62000f138162001596565b50565b816001600160a01b0316836001600160a01b03160362000f8b5760405162461bcd60e51b815260206004820152602960248201527f455243313135353a2073657474696e6720617070726f76616c20737461747573604482015268103337b91039b2b63360b91b6064820152608401620003db565b6001600160a01b03838116600081815260016020908152604080832094871680845294825291829020805460ff191686151590811790915591519182527f17307eab39ab6107e8899845ad3d59bd9653f200f220920489ca2b5937696c31910160405180910390a3505050565b6000834710156200104c5760405162461bcd60e51b815260206004820152601d60248201527f437265617465323a20696e73756666696369656e742062616c616e63650000006044820152606401620003db565b81516000036200109f5760405162461bcd60e51b815260206004820181905260248201527f437265617465323a2062797465636f6465206c656e677468206973207a65726f6044820152606401620003db565b8282516020840186f590506001600160a01b038116620011025760405162461bcd60e51b815260206004820152601960248201527f437265617465323a204661696c6564206f6e206465706c6f79000000000000006044820152606401620003db565b9392505050565b6001600160a01b0384166200116f5760405162461bcd60e51b815260206004820152602560248201527f455243313135353a207472616e7366657220746f20746865207a65726f206164604482015264647265737360d81b6064820152608401620003db565b3360006200117d85620015a4565b905060006200118c85620015a4565b90506000868152602081815260408083206001600160a01b038c16845290915290205485811015620012145760405162461bcd60e51b815260206004820152602a60248201527f455243313135353a20696e73756666696369656e742062616c616e636520666f60448201526939103a3930b739b332b960b11b6064820152608401620003db565b6000878152602081815260408083206001600160a01b038d8116855292528083208985039055908a168252812080548892906200125390849062001f13565b909155505060408051888152602081018890526001600160a01b03808b16928c821692918816917fc3d58168c5ae7397731d063d5bbf3d657854427343f4c083240f7aacaa2d0f62910160405180910390a4620012b5848a8a8a8a8a620015f2565b505050505050505050565b6001600160a01b0384163b1562000eec5760405163bc197c8160e01b81526001600160a01b0385169063bc197c819062001307908990899088908890889060040162001f5b565b6020604051808303816000875af192505050801562001345575060408051601f3d908101601f19168201909252620013429181019062001fbf565b60015b62001405576200135462001fdf565b806308c379a0036200139457506200136b62001ffc565b8062001378575062001396565b8060405162461bcd60e51b8152600401620003db9190620017ff565b505b60405162461bcd60e51b815260206004820152603460248201527f455243313135353a207472616e7366657220746f206e6f6e2d4552433131353560448201527f526563656976657220696d706c656d656e7465720000000000000000000000006064820152608401620003db565b6001600160e01b0319811663bc197c8160e01b14620014785760405162461bcd60e51b815260206004820152602860248201527f455243313135353a204552433131353552656365697665722072656a656374656044820152676420746f6b656e7360c01b6064820152608401620003db565b50505050505050565b6001600160a01b038416620014e35760405162461bcd60e51b815260206004820152602160248201527f455243313135353a206d696e7420746f20746865207a65726f206164647265736044820152607360f81b6064820152608401620003db565b336000620014f185620015a4565b905060006200150085620015a4565b90506000868152602081815260408083206001600160a01b038b168452909152812080548792906200153490849062001f13565b909155505060408051878152602081018790526001600160a01b03808a1692600092918716917fc3d58168c5ae7397731d063d5bbf3d657854427343f4c083240f7aacaa2d0f62910160405180910390a46200147883600089898989620015f2565b60026200084a828262001dfd565b60408051600180825281830190925260609160009190602080830190803683370190505090508281600081518110620015e157620015e162001eca565b602090810291909101015292915050565b6001600160a01b0384163b1562000eec5760405163f23a6e6160e01b81526001600160a01b0385169063f23a6e61906200163990899089908890889088906004016200208c565b6020604051808303816000875af192505050801562001677575060408051601f3d908101601f19168201909252620016749181019062001fbf565b60015b62001686576200135462001fdf565b6001600160e01b0319811663f23a6e6160e01b14620014785760405162461bcd60e51b815260206004820152602860248201527f455243313135353a204552433131353552656365697665722072656a656374656044820152676420746f6b656e7360c01b6064820152608401620003db565b6121c280620020d283390190565b611c3c806200429483390190565b6001600160a01b038116811462000f1357600080fd5b600080604083850312156200173f57600080fd5b82356200174c8162001715565b946020939093013593505050565b6001600160e01b03198116811462000f1357600080fd5b6000602082840312156200178457600080fd5b813562001102816200175a565b600060208284031215620017a457600080fd5b5035919050565b60005b83811015620017c8578181015183820152602001620017ae565b50506000910152565b60008151808452620017eb816020860160208601620017ab565b601f01601f19169290920160200192915050565b602081526000620011026020830184620017d1565b634e487b7160e01b600052604160045260246000fd5b601f8201601f1916810167ffffffffffffffff8111828210171562001853576200185362001814565b6040525050565b600067ffffffffffffffff82111562001877576200187762001814565b5060051b60200190565b600082601f8301126200189357600080fd5b81356020620018a2826200185a565b604051620018b182826200182a565b83815260059390931b8501820192828101915086841115620018d257600080fd5b8286015b84811015620018ef5780358352918301918301620018d6565b509695505050505050565b600067ffffffffffffffff83111562001917576200191762001814565b60405162001930601f8501601f1916602001826200182a565b8091508381528484840111156200194657600080fd5b83836020830137600060208583010152509392505050565b600082601f8301126200197057600080fd5b6200110283833560208501620018fa565b600080600080600060a086880312156200199a57600080fd5b8535620019a78162001715565b94506020860135620019b98162001715565b9350604086013567ffffffffffffffff80821115620019d757600080fd5b620019e589838a0162001881565b94506060880135915080821115620019fc57600080fd5b62001a0a89838a0162001881565b9350608088013591508082111562001a2157600080fd5b5062001a30888289016200195e565b9150509295509295909350565b6000806040838503121562001a5157600080fd5b823567ffffffffffffffff81111562001a6957600080fd5b8301601f8101851362001a7b57600080fd5b62001a8c85823560208401620018fa565b95602094909401359450505050565b6000806040838503121562001aaf57600080fd5b823567ffffffffffffffff8082111562001ac857600080fd5b818501915085601f83011262001add57600080fd5b8135602062001aec826200185a565b60405162001afb82826200182a565b83815260059390931b850182019282810191508984111562001b1c57600080fd5b948201945b8386101562001b4757853562001b378162001715565b8252948201949082019062001b21565b9650508601359250508082111562001b5e57600080fd5b5062001b6d8582860162001881565b9150509250929050565b600081518084526020808501945080840160005b8381101562001ba95781518752958201959082019060010162001b8b565b509495945050505050565b60208152600062001102602083018462001b77565b6000806040838503121562001bdd57600080fd5b82359150602083013562001bf18162001715565b809150509250929050565b6000806040838503121562001c1057600080fd5b823562001c1d8162001715565b91506020830135801515811462001bf157600080fd5b60208152815160208201526001600160a01b036020830151166040820152604082015160608201526000606083015160c0608084015262001c7860e0840182620017d1565b90506080840151151560a084015260a0840151151560c08401528091505092915050565b6000806040838503121562001cb057600080fd5b823562001cbd8162001715565b9150602083013562001bf18162001715565b600080600080600060a0868803121562001ce857600080fd5b853562001cf58162001715565b9450602086013562001d078162001715565b93506040860135925060608601359150608086013567ffffffffffffffff81111562001d3257600080fd5b62001a30888289016200195e565b600181811c9082168062001d5557607f821691505b60208210810362001d7657634e487b7160e01b600052602260045260246000fd5b50919050565b634e487b7160e01b600052601160045260246000fd5b60006001820162001da75762001da762001d7c565b5060010190565b601f82111562001df857600081815260208120601f850160051c8101602086101562001dd75750805b601f850160051c820191505b8181101562000eec5782815560010162001de3565b505050565b815167ffffffffffffffff81111562001e1a5762001e1a62001814565b62001e328162001e2b845462001d40565b8462001dae565b602080601f83116001811462001e6a576000841562001e515750858301515b600019600386901b1c1916600185901b17855562000eec565b600085815260208120601f198616915b8281101562001e9b5788860151825594840194600190910190840162001e7a565b508582101562001eba5787850151600019600388901b60f8161c191681555b5050505050600190811b01905550565b634e487b7160e01b600052603260045260246000fd5b6000835162001ef4818460208801620017ab565b83519083019062001f0a818360208801620017ab565b01949350505050565b8082018082111562000407576200040762001d7c565b60408152600062001f3e604083018562001b77565b828103602084015262001f52818562001b77565b95945050505050565b60006001600160a01b03808816835280871660208401525060a0604083015262001f8960a083018662001b77565b828103606084015262001f9d818662001b77565b9050828103608084015262001fb38185620017d1565b98975050505050505050565b60006020828403121562001fd257600080fd5b815162001102816200175a565b600060033d111562001ff95760046000803e5060005160e01c5b90565b600060443d10156200200b5790565b6040516003193d81016004833e81513d67ffffffffffffffff81602484011181841117156200203c57505050505090565b8285019150815181811115620020555750505050505090565b843d8701016020828501011115620020705750505050505090565b62002081602082860101876200182a565b509095945050505050565b60006001600160a01b03808816835280871660208401525084604083015283606083015260a06080830152620020c660a0830184620017d1565b97965050505050505056fe60806040523480156200001157600080fd5b50604051620021c2380380620021c28339810160408190526200003491620003de565b6040805160208101909152600081526200004e816200009c565b5060038290556004819055600580546001600160a01b0319163390811790915560408051602081019091526000808252620000949291670de0b6b3a764000090620000ae565b505062000760565b6002620000aa8282620004a4565b5050565b6001600160a01b038416620001145760405162461bcd60e51b815260206004820152602160248201527f455243313135353a206d696e7420746f20746865207a65726f206164647265736044820152607360f81b60648201526084015b60405180910390fd5b3360006200012285620001d0565b905060006200013185620001d0565b90506000868152602081815260408083206001600160a01b038b168452909152812080548792906200016590849062000570565b909155505060408051878152602081018790526001600160a01b03808a1692600092918716917fc3d58168c5ae7397731d063d5bbf3d657854427343f4c083240f7aacaa2d0f62910160405180910390a4620001c78360008989898962000226565b50505050505050565b604080516001808252818301909252606091600091906020808301908036833701905050905082816000815181106200020d576200020d62000598565b602090810291909101015292915050565b505050505050565b6001600160a01b0384163b156200021e5760405163f23a6e6160e01b81526001600160a01b0385169063f23a6e61906200026d9089908990889088908890600401620005f6565b6020604051808303816000875af1925050508015620002ab575060408051601f3d908101601f19168201909252620002a8918101906200063d565b60015b6200036b57620002ba62000670565b806308c379a003620002fa5750620002d1620006bc565b80620002de5750620002fc565b8060405162461bcd60e51b81526004016200010b91906200074b565b505b60405162461bcd60e51b815260206004820152603460248201527f455243313135353a207472616e7366657220746f206e6f6e2d4552433131353560448201527f526563656976657220696d706c656d656e74657200000000000000000000000060648201526084016200010b565b6001600160e01b0319811663f23a6e6160e01b14620001c75760405162461bcd60e51b815260206004820152602860248201527f455243313135353a204552433131353552656365697665722072656a656374656044820152676420746f6b656e7360c01b60648201526084016200010b565b60008060408385031215620003f257600080fd5b505080516020909101519092909150565b634e487b7160e01b600052604160045260246000fd5b600181811c908216806200042e57607f821691505b6020821081036200044f57634e487b7160e01b600052602260045260246000fd5b50919050565b601f8211156200049f57600081815260208120601f850160051c810160208610156200047e5750805b601f850160051c820191505b818110156200021e578281556001016200048a565b505050565b81516001600160401b03811115620004c057620004c062000403565b620004d881620004d1845462000419565b8462000455565b602080601f831160018114620005105760008415620004f75750858301515b600019600386901b1c1916600185901b1785556200021e565b600085815260208120601f198616915b82811015620005415788860151825594840194600190910190840162000520565b5085821015620005605787850151600019600388901b60f8161c191681555b5050505050600190811b01905550565b808201808211156200059257634e487b7160e01b600052601160045260246000fd5b92915050565b634e487b7160e01b600052603260045260246000fd5b6000815180845260005b81811015620005d657602081850181015186830182015201620005b8565b506000602082860101526020601f19601f83011685010191505092915050565b6001600160a01b03868116825285166020820152604081018490526060810183905260a0608082018190526000906200063290830184620005ae565b979650505050505050565b6000602082840312156200065057600080fd5b81516001600160e01b0319811681146200066957600080fd5b9392505050565b600060033d11156200068a5760046000803e5060005160e01c5b90565b601f8201601f191681016001600160401b0381118282101715620006b557620006b562000403565b6040525050565b600060443d1015620006cb5790565b6040516003193d81016004833e81513d6001600160401b038083116024840183101715620006fb57505050505090565b8285019150815181811115620007145750505050505090565b843d87010160208285010111156200072f5750505050505090565b62000740602082860101876200068d565b509095945050505050565b602081526000620006696020830184620005ae565b611a5280620007706000396000f3fe6080604052600436106100d15760003560e01c80638fcb4e5b1161007f578063df48981a11610059578063df48981a1461024d578063e985e9c514610260578063f23a6e61146102a9578063f242432a146102d557600080fd5b80638fcb4e5b146101c8578063a22cb465146101e8578063bc197c811461020857600080fd5b80632eb2c2d6116100b05780632eb2c2d6146101665780634ba8ae81146101885780634e1273f41461019b57600080fd5b8062fdd58e146100d657806301ffc9a7146101095780630e89341c14610139575b600080fd5b3480156100e257600080fd5b506100f66100f13660046112f0565b6102f5565b6040519081526020015b60405180910390f35b34801561011557600080fd5b50610129610124366004611333565b61038e565b6040519015158152602001610100565b34801561014557600080fd5b50610159610154366004611357565b6103de565b60405161010091906113b6565b34801561017257600080fd5b50610186610181366004611515565b610472565b005b610186610196366004611357565b610505565b3480156101a757600080fd5b506101bb6101b63660046115bf565b610609565b60405161010091906116c5565b3480156101d457600080fd5b506101866101e33660046112f0565b610733565b3480156101f457600080fd5b506101866102033660046116d8565b610821565b34801561021457600080fd5b50610234610223366004611515565b63bc197c8160e01b95945050505050565b6040516001600160e01b03199091168152602001610100565b61018661025b366004611357565b610830565b34801561026c57600080fd5b5061012961027b366004611714565b6001600160a01b03918216600090815260016020908152604080832093909416825291909152205460ff1690565b3480156102b557600080fd5b506102346102c4366004611747565b63f23a6e6160e01b95945050505050565b3480156102e157600080fd5b506101866102f0366004611747565b610a6a565b60006001600160a01b0383166103655760405162461bcd60e51b815260206004820152602a60248201527f455243313135353a2061646472657373207a65726f206973206e6f742061207660448201526930b634b21037bbb732b960b11b60648201526084015b60405180910390fd5b506000818152602081815260408083206001600160a01b03861684529091529020545b92915050565b60006001600160e01b03198216636cdb3d1360e11b14806103bf57506001600160e01b031982166303a24d0760e21b145b8061038857506301ffc9a760e01b6001600160e01b0319831614610388565b6060600280546103ed906117ac565b80601f0160208091040260200160405190810160405280929190818152602001828054610419906117ac565b80156104665780601f1061043b57610100808354040283529160200191610466565b820191906000526020600020905b81548152906001019060200180831161044957829003601f168201915b50505050509050919050565b6001600160a01b03851633148061048e575061048e853361027b565b6104f15760405162461bcd60e51b815260206004820152602e60248201527f455243313135353a2063616c6c6572206973206e6f7420746f6b656e206f776e60448201526d195c881bdc88185c1c1c9bdd995960921b606482015260840161035c565b6104fe8585858585610af6565b5050505050565b336000908152600660205260409020548111156105645760405162461bcd60e51b815260206004820152601e60248201527f496e73756666696369656e742073686172657320746f20626520736f6c640000604482015260640161035c565b610581333060008460405180602001604052806000815250610a6a565b6000816064600454670de0b6b3a764000061059c91906117fc565b6105a69190611813565b6105b091906117fc565b604051909150339082156108fc029083906000818181858888f193505050501580156105e0573d6000803e3d6000fd5b503360009081526006602052604081208054849290610600908490611835565b90915550505050565b6060815183511461066e5760405162461bcd60e51b815260206004820152602960248201527f455243313135353a206163636f756e747320616e6420696473206c656e677468604482015268040dad2e6dac2e8c6d60bb1b606482015260840161035c565b6000835167ffffffffffffffff81111561068a5761068a6113c9565b6040519080825280602002602001820160405280156106b3578160200160208202803683370190505b50905060005b845181101561072b576106fe8582815181106106d7576106d7611848565b60200260200101518583815181106106f1576106f1611848565b60200260200101516102f5565b82828151811061071057610710611848565b60209081029190910101526107248161185e565b90506106b9565b509392505050565b336000908152600660205260409020548111156107b85760405162461bcd60e51b815260206004820152603260248201527f496e73756666696369656e742073686172657320746f206265207472616e736660448201527f657272656420746f20726563657069656e740000000000000000000000000000606482015260840161035c565b6107d5338360008460405180602001604052806000815250610a6a565b33600090815260066020526040812080548392906107f4908490611835565b90915550506001600160a01b03821660009081526006602052604081208054839290610600908490611877565b61082c338383610d54565b5050565b60648111156108a75760405162461bcd60e51b815260206004820152603560248201527f4d6178696d756d206e756d626572206f6620736861726573207468617420636160448201527f6e20626520707572636861736564206973203130300000000000000000000000606482015260840161035c565b6000811161091d5760405162461bcd60e51b815260206004820152603160248201527f4e756d626572206f6620736861726573207075726368617365642063616e6e6f60448201527f74206265207a65726f206f72206c657373000000000000000000000000000000606482015260840161035c565b6109283060006102f5565b811061098d5760405162461bcd60e51b815260206004820152602e60248201527f5468657265206172656e27742073756666696369656e7420736861726573207460448201526d1bc81899481c1d5c98da185cd95960921b606482015260840161035c565b6000816064600454670de0b6b3a76400006109a891906117fc565b6109b29190611813565b6109bc91906117fc565b9050348114610a0d5760405162461bcd60e51b815260206004820152601560248201527f496e636f72726563742066756e64732073656e74210000000000000000000000604482015260640161035c565b60405130903480156108fc02916000818181858888f19350505050158015610a39573d6000803e3d6000fd5b50610a57303360008560405180602001604052806000815250610a6a565b5033600090815260066020526040902055565b6001600160a01b038516331480610a865750610a86853361027b565b610ae95760405162461bcd60e51b815260206004820152602e60248201527f455243313135353a2063616c6c6572206973206e6f7420746f6b656e206f776e60448201526d195c881bdc88185c1c1c9bdd995960921b606482015260840161035c565b6104fe8585858585610e34565b8151835114610b585760405162461bcd60e51b815260206004820152602860248201527f455243313135353a2069647320616e6420616d6f756e7473206c656e677468206044820152670dad2e6dac2e8c6d60c31b606482015260840161035c565b6001600160a01b038416610bbc5760405162461bcd60e51b815260206004820152602560248201527f455243313135353a207472616e7366657220746f20746865207a65726f206164604482015264647265737360d81b606482015260840161035c565b3360005b8451811015610ce6576000858281518110610bdd57610bdd611848565b602002602001015190506000858381518110610bfb57610bfb611848565b602090810291909101810151600084815280835260408082206001600160a01b038e168352909352919091205490915081811015610c8e5760405162461bcd60e51b815260206004820152602a60248201527f455243313135353a20696e73756666696369656e742062616c616e636520666f60448201526939103a3930b739b332b960b11b606482015260840161035c565b6000838152602081815260408083206001600160a01b038e8116855292528083208585039055908b16825281208054849290610ccb908490611877565b9250508190555050505080610cdf9061185e565b9050610bc0565b50846001600160a01b0316866001600160a01b0316826001600160a01b03167f4a39dc06d4c0dbc64b70af90fd698a233a518aa5d07e595d983b8c0526c8f7fb8787604051610d3692919061188a565b60405180910390a4610d4c818787878787610fdf565b505050505050565b816001600160a01b0316836001600160a01b031603610dc75760405162461bcd60e51b815260206004820152602960248201527f455243313135353a2073657474696e6720617070726f76616c20737461747573604482015268103337b91039b2b63360b91b606482015260840161035c565b6001600160a01b03838116600081815260016020908152604080832094871680845294825291829020805460ff191686151590811790915591519182527f17307eab39ab6107e8899845ad3d59bd9653f200f220920489ca2b5937696c31910160405180910390a3505050565b6001600160a01b038416610e985760405162461bcd60e51b815260206004820152602560248201527f455243313135353a207472616e7366657220746f20746865207a65726f206164604482015264647265737360d81b606482015260840161035c565b336000610ea48561118d565b90506000610eb18561118d565b90506000868152602081815260408083206001600160a01b038c16845290915290205485811015610f375760405162461bcd60e51b815260206004820152602a60248201527f455243313135353a20696e73756666696369656e742062616c616e636520666f60448201526939103a3930b739b332b960b11b606482015260840161035c565b6000878152602081815260408083206001600160a01b038d8116855292528083208985039055908a16825281208054889290610f74908490611877565b909155505060408051888152602081018890526001600160a01b03808b16928c821692918816917fc3d58168c5ae7397731d063d5bbf3d657854427343f4c083240f7aacaa2d0f62910160405180910390a4610fd4848a8a8a8a8a6111d8565b505050505050505050565b6001600160a01b0384163b15610d4c5760405163bc197c8160e01b81526001600160a01b0385169063bc197c819061102390899089908890889088906004016118b8565b6020604051808303816000875af192505050801561105e575060408051601f3d908101601f1916820190925261105b91810190611916565b60015b6111135761106a611933565b806308c379a0036110a3575061107e61194f565b8061108957506110a5565b8060405162461bcd60e51b815260040161035c91906113b6565b505b60405162461bcd60e51b815260206004820152603460248201527f455243313135353a207472616e7366657220746f206e6f6e2d4552433131353560448201527f526563656976657220696d706c656d656e746572000000000000000000000000606482015260840161035c565b6001600160e01b0319811663bc197c8160e01b146111845760405162461bcd60e51b815260206004820152602860248201527f455243313135353a204552433131353552656365697665722072656a656374656044820152676420746f6b656e7360c01b606482015260840161035c565b50505050505050565b604080516001808252818301909252606091600091906020808301908036833701905050905082816000815181106111c7576111c7611848565b602090810291909101015292915050565b6001600160a01b0384163b15610d4c5760405163f23a6e6160e01b81526001600160a01b0385169063f23a6e619061121c90899089908890889088906004016119d9565b6020604051808303816000875af1925050508015611257575060408051601f3d908101601f1916820190925261125491810190611916565b60015b6112635761106a611933565b6001600160e01b0319811663f23a6e6160e01b146111845760405162461bcd60e51b815260206004820152602860248201527f455243313135353a204552433131353552656365697665722072656a656374656044820152676420746f6b656e7360c01b606482015260840161035c565b80356001600160a01b03811681146112eb57600080fd5b919050565b6000806040838503121561130357600080fd5b61130c836112d4565b946020939093013593505050565b6001600160e01b03198116811461133057600080fd5b50565b60006020828403121561134557600080fd5b81356113508161131a565b9392505050565b60006020828403121561136957600080fd5b5035919050565b6000815180845260005b818110156113965760208185018101518683018201520161137a565b506000602082860101526020601f19601f83011685010191505092915050565b6020815260006113506020830184611370565b634e487b7160e01b600052604160045260246000fd5b601f8201601f1916810167ffffffffffffffff81118282101715611405576114056113c9565b6040525050565b600067ffffffffffffffff821115611426576114266113c9565b5060051b60200190565b600082601f83011261144157600080fd5b8135602061144e8261140c565b60405161145b82826113df565b83815260059390931b850182019282810191508684111561147b57600080fd5b8286015b84811015611496578035835291830191830161147f565b509695505050505050565b600082601f8301126114b257600080fd5b813567ffffffffffffffff8111156114cc576114cc6113c9565b6040516114e3601f8301601f1916602001826113df565b8181528460208386010111156114f857600080fd5b816020850160208301376000918101602001919091529392505050565b600080600080600060a0868803121561152d57600080fd5b611536866112d4565b9450611544602087016112d4565b9350604086013567ffffffffffffffff8082111561156157600080fd5b61156d89838a01611430565b9450606088013591508082111561158357600080fd5b61158f89838a01611430565b935060808801359150808211156115a557600080fd5b506115b2888289016114a1565b9150509295509295909350565b600080604083850312156115d257600080fd5b823567ffffffffffffffff808211156115ea57600080fd5b818501915085601f8301126115fe57600080fd5b8135602061160b8261140c565b60405161161882826113df565b83815260059390931b850182019282810191508984111561163857600080fd5b948201945b8386101561165d5761164e866112d4565b8252948201949082019061163d565b9650508601359250508082111561167357600080fd5b5061168085828601611430565b9150509250929050565b600081518084526020808501945080840160005b838110156116ba5781518752958201959082019060010161169e565b509495945050505050565b602081526000611350602083018461168a565b600080604083850312156116eb57600080fd5b6116f4836112d4565b91506020830135801515811461170957600080fd5b809150509250929050565b6000806040838503121561172757600080fd5b611730836112d4565b915061173e602084016112d4565b90509250929050565b600080600080600060a0868803121561175f57600080fd5b611768866112d4565b9450611776602087016112d4565b93506040860135925060608601359150608086013567ffffffffffffffff8111156117a057600080fd5b6115b2888289016114a1565b600181811c908216806117c057607f821691505b6020821081036117e057634e487b7160e01b600052602260045260246000fd5b50919050565b634e487b7160e01b600052601160045260246000fd5b8082028115828204841417610388576103886117e6565b60008261183057634e487b7160e01b600052601260045260246000fd5b500490565b81810381811115610388576103886117e6565b634e487b7160e01b600052603260045260246000fd5b600060018201611870576118706117e6565b5060010190565b80820180821115610388576103886117e6565b60408152600061189d604083018561168a565b82810360208401526118af818561168a565b95945050505050565b60006001600160a01b03808816835280871660208401525060a060408301526118e460a083018661168a565b82810360608401526118f6818661168a565b9050828103608084015261190a8185611370565b98975050505050505050565b60006020828403121561192857600080fd5b81516113508161131a565b600060033d111561194c5760046000803e5060005160e01c5b90565b600060443d101561195d5790565b6040516003193d81016004833e81513d67ffffffffffffffff816024840111818411171561198d57505050505090565b82850191508151818111156119a55750505050505090565b843d87010160208285010111156119bf5750505050505090565b6119ce602082860101876113df565b509095945050505050565b60006001600160a01b03808816835280871660208401525084604083015283606083015260a06080830152611a1160a0830184611370565b97965050505050505056fea2646970667358221220be1bd6e4787bec983641b6bdae6f0844644be53a19734cc19b2ab0358eccfb2764736f6c6343000814003360806040523480156200001157600080fd5b5060405162001c3c38038062001c3c83398101604081905262000034916200009a565b6040805160208101909152600081526200004e8162000088565b506003939093556004919091556007556000600555600880546001600160a01b0319166001600160a01b039092169190911790556200025c565b600262000096828262000190565b5050565b60008060008060808587031215620000b157600080fd5b845160208601516040870151606088015192965090945092506001600160a01b0381168114620000e057600080fd5b939692955090935050565b634e487b7160e01b600052604160045260246000fd5b600181811c908216806200011657607f821691505b6020821081036200013757634e487b7160e01b600052602260045260246000fd5b50919050565b601f8211156200018b57600081815260208120601f850160051c81016020861015620001665750805b601f850160051c820191505b81811015620001875782815560010162000172565b5050505b505050565b81516001600160401b03811115620001ac57620001ac620000eb565b620001c481620001bd845462000101565b846200013d565b602080601f831160018114620001fc5760008415620001e35750858301515b600019600386901b1c1916600185901b17855562000187565b600085815260208120601f198616915b828110156200022d578886015182559484019460019091019084016200020c565b50858210156200024c5787850151600019600388901b60f8161c191681555b5050505050600190811b01905550565b6119d0806200026c6000396000f3fe6080604052600436106100fd5760003560e01c80634e1273f411610095578063a22cb46511610064578063a22cb465146102dc578063bc197c81146102fc578063e985e9c514610341578063f23a6e611461038a578063f242432a146103b657600080fd5b80634e1273f41461025e57806370740ac91461028b5780638d07ae9f146102935780639979ef45146102c957600080fd5b80632eb2c2d6116100d15780632eb2c2d6146101ba5780633a6dcea2146101dc5780633a79d2e5146102345780634935e7401461025657600080fd5b8062fdd58e1461010257806301ffc9a7146101355780630e89341c1461016557806314034bd214610192575b600080fd5b34801561010e57600080fd5b5061012261011d36600461124a565b6103d6565b6040519081526020015b60405180910390f35b34801561014157600080fd5b5061015561015036600461128c565b61046f565b604051901515815260200161012c565b34801561017157600080fd5b506101856101803660046112b0565b6104bf565b60405161012c919061130f565b34801561019e57600080fd5b506006546040516001600160a01b03909116815260200161012c565b3480156101c657600080fd5b506101da6101d536600461146e565b610553565b005b3480156101e857600080fd5b50600354600454600554600854600654600754604080519687526020870195909552938501929092526001600160a01b03908116606085015216608083015260a082015260c00161012c565b34801561024057600080fd5b506102496105e6565b60405161012c919061151c565b6101da610648565b34801561026a57600080fd5b5061027e610279366004611569565b610710565b60405161012c9190611671565b6101da61083a565b34801561029f57600080fd5b506101226102ae366004611684565b6001600160a01b03166000908152600a602052604090205490565b6101da6102d73660046112b0565b6108cf565b3480156102e857600080fd5b506101da6102f73660046116a1565b6109bc565b34801561030857600080fd5b5061032861031736600461146e565b63bc197c8160e01b95945050505050565b6040516001600160e01b0319909116815260200161012c565b34801561034d57600080fd5b5061015561035c3660046116df565b6001600160a01b03918216600090815260016020908152604080832093909416825291909152205460ff1690565b34801561039657600080fd5b506103286103a536600461170d565b63f23a6e6160e01b95945050505050565b3480156103c257600080fd5b506101da6103d136600461170d565b6109cb565b60006001600160a01b0383166104465760405162461bcd60e51b815260206004820152602a60248201527f455243313135353a2061646472657373207a65726f206973206e6f742061207660448201526930b634b21037bbb732b960b11b60648201526084015b60405180910390fd5b506000818152602081815260408083206001600160a01b03861684529091529020545b92915050565b60006001600160e01b03198216636cdb3d1360e11b14806104a057506001600160e01b031982166303a24d0760e21b145b8061046957506301ffc9a760e01b6001600160e01b0319831614610469565b6060600280546104ce90611776565b80601f01602080910402602001604051908101604052809291908181526020018280546104fa90611776565b80156105475780601f1061051c57610100808354040283529160200191610547565b820191906000526020600020905b81548152906001019060200180831161052a57829003601f168201915b50505050509050919050565b6001600160a01b03851633148061056f575061056f853361035c565b6105d25760405162461bcd60e51b815260206004820152602e60248201527f455243313135353a2063616c6c6572206973206e6f7420746f6b656e206f776e60448201526d195c881bdc88185c1c1c9bdd995960921b606482015260840161043d565b6105df8585858585610a57565b5050505050565b6060600980548060200260200160405190810160405280929190818152602001828054801561063e57602002820191906000526020600020905b81546001600160a01b03168152600190910190602001808311610620575b5050505050905090565b6006546001600160a01b0316331461070e57336000908152600a6020526040812054908190036106ce5760405162461bcd60e51b815260206004820152602b60248201527f596f752068617665206e6f7420706c6163656420616e792062657420696e207460448201526a3434b99030bab1ba34b7b760a91b606482015260840161043d565b604051339082156108fc029083906000818181858888f193505050501580156106fb573d6000803e3d6000fd5b5050336000908152600a60205260408120555b565b606081518351146107755760405162461bcd60e51b815260206004820152602960248201527f455243313135353a206163636f756e747320616e6420696473206c656e677468604482015268040dad2e6dac2e8c6d60bb1b606482015260840161043d565b6000835167ffffffffffffffff81111561079157610791611322565b6040519080825280602002602001820160405280156107ba578160200160208202803683370190505b50905060005b8451811015610832576108058582815181106107de576107de6117b0565b60200260200101518583815181106107f8576107f86117b0565b60200260200101516103d6565b828281518110610817576108176117b0565b602090810291909101015261082b816117dc565b90506107c0565b509392505050565b6006546001600160a01b0316330361070e576008546005546040516001600160a01b039092169181156108fc0291906000818181858888f19350505050158015610888573d6000803e3d6000fd5b506108bd30600660009054906101000a90046001600160a01b0316600354600060405180602001604052806000815250610cb5565b336000908152600a6020526040812055565b60045481116109465760405162461bcd60e51b815260206004820152603e60248201527f42696420706c61636564206d75737420626520686967686572207468616e207460448201527f6865206576616c756174696f6e206f66207468652074696d657374616d700000606482015260840161043d565b336000818152600a602052604081208390556009805460018101825591527f6e1540171b6c0c960b71a7020d9f60077f6af931a8bbf590da0223dacf75c7af0180546001600160a01b03191690911790556005548111156109b9576005819055600680546001600160a01b031916331790555b50565b6109c7338383610e60565b5050565b6001600160a01b0385163314806109e757506109e7853361035c565b610a4a5760405162461bcd60e51b815260206004820152602e60248201527f455243313135353a2063616c6c6572206973206e6f7420746f6b656e206f776e60448201526d195c881bdc88185c1c1c9bdd995960921b606482015260840161043d565b6105df8585858585610cb5565b8151835114610ab95760405162461bcd60e51b815260206004820152602860248201527f455243313135353a2069647320616e6420616d6f756e7473206c656e677468206044820152670dad2e6dac2e8c6d60c31b606482015260840161043d565b6001600160a01b038416610b1d5760405162461bcd60e51b815260206004820152602560248201527f455243313135353a207472616e7366657220746f20746865207a65726f206164604482015264647265737360d81b606482015260840161043d565b3360005b8451811015610c47576000858281518110610b3e57610b3e6117b0565b602002602001015190506000858381518110610b5c57610b5c6117b0565b602090810291909101810151600084815280835260408082206001600160a01b038e168352909352919091205490915081811015610bef5760405162461bcd60e51b815260206004820152602a60248201527f455243313135353a20696e73756666696369656e742062616c616e636520666f60448201526939103a3930b739b332b960b11b606482015260840161043d565b6000838152602081815260408083206001600160a01b038e8116855292528083208585039055908b16825281208054849290610c2c9084906117f5565b9250508190555050505080610c40906117dc565b9050610b21565b50846001600160a01b0316866001600160a01b0316826001600160a01b03167f4a39dc06d4c0dbc64b70af90fd698a233a518aa5d07e595d983b8c0526c8f7fb8787604051610c97929190611808565b60405180910390a4610cad818787878787610f40565b505050505050565b6001600160a01b038416610d195760405162461bcd60e51b815260206004820152602560248201527f455243313135353a207472616e7366657220746f20746865207a65726f206164604482015264647265737360d81b606482015260840161043d565b336000610d25856110ee565b90506000610d32856110ee565b90506000868152602081815260408083206001600160a01b038c16845290915290205485811015610db85760405162461bcd60e51b815260206004820152602a60248201527f455243313135353a20696e73756666696369656e742062616c616e636520666f60448201526939103a3930b739b332b960b11b606482015260840161043d565b6000878152602081815260408083206001600160a01b038d8116855292528083208985039055908a16825281208054889290610df59084906117f5565b909155505060408051888152602081018890526001600160a01b03808b16928c821692918816917fc3d58168c5ae7397731d063d5bbf3d657854427343f4c083240f7aacaa2d0f62910160405180910390a4610e55848a8a8a8a8a611139565b505050505050505050565b816001600160a01b0316836001600160a01b031603610ed35760405162461bcd60e51b815260206004820152602960248201527f455243313135353a2073657474696e6720617070726f76616c20737461747573604482015268103337b91039b2b63360b91b606482015260840161043d565b6001600160a01b03838116600081815260016020908152604080832094871680845294825291829020805460ff191686151590811790915591519182527f17307eab39ab6107e8899845ad3d59bd9653f200f220920489ca2b5937696c31910160405180910390a3505050565b6001600160a01b0384163b15610cad5760405163bc197c8160e01b81526001600160a01b0385169063bc197c8190610f849089908990889088908890600401611836565b6020604051808303816000875af1925050508015610fbf575060408051601f3d908101601f19168201909252610fbc91810190611894565b60015b61107457610fcb6118b1565b806308c379a0036110045750610fdf6118cd565b80610fea5750611006565b8060405162461bcd60e51b815260040161043d919061130f565b505b60405162461bcd60e51b815260206004820152603460248201527f455243313135353a207472616e7366657220746f206e6f6e2d4552433131353560448201527f526563656976657220696d706c656d656e746572000000000000000000000000606482015260840161043d565b6001600160e01b0319811663bc197c8160e01b146110e55760405162461bcd60e51b815260206004820152602860248201527f455243313135353a204552433131353552656365697665722072656a656374656044820152676420746f6b656e7360c01b606482015260840161043d565b50505050505050565b60408051600180825281830190925260609160009190602080830190803683370190505090508281600081518110611128576111286117b0565b602090810291909101015292915050565b6001600160a01b0384163b15610cad5760405163f23a6e6160e01b81526001600160a01b0385169063f23a6e619061117d9089908990889088908890600401611957565b6020604051808303816000875af19250505080156111b8575060408051601f3d908101601f191682019092526111b591810190611894565b60015b6111c457610fcb6118b1565b6001600160e01b0319811663f23a6e6160e01b146110e55760405162461bcd60e51b815260206004820152602860248201527f455243313135353a204552433131353552656365697665722072656a656374656044820152676420746f6b656e7360c01b606482015260840161043d565b6001600160a01b03811681146109b957600080fd5b6000806040838503121561125d57600080fd5b823561126881611235565b946020939093013593505050565b6001600160e01b0319811681146109b957600080fd5b60006020828403121561129e57600080fd5b81356112a981611276565b9392505050565b6000602082840312156112c257600080fd5b5035919050565b6000815180845260005b818110156112ef576020818501810151868301820152016112d3565b506000602082860101526020601f19601f83011685010191505092915050565b6020815260006112a960208301846112c9565b634e487b7160e01b600052604160045260246000fd5b601f8201601f1916810167ffffffffffffffff8111828210171561135e5761135e611322565b6040525050565b600067ffffffffffffffff82111561137f5761137f611322565b5060051b60200190565b600082601f83011261139a57600080fd5b813560206113a782611365565b6040516113b48282611338565b83815260059390931b85018201928281019150868411156113d457600080fd5b8286015b848110156113ef57803583529183019183016113d8565b509695505050505050565b600082601f83011261140b57600080fd5b813567ffffffffffffffff81111561142557611425611322565b60405161143c601f8301601f191660200182611338565b81815284602083860101111561145157600080fd5b816020850160208301376000918101602001919091529392505050565b600080600080600060a0868803121561148657600080fd5b853561149181611235565b945060208601356114a181611235565b9350604086013567ffffffffffffffff808211156114be57600080fd5b6114ca89838a01611389565b945060608801359150808211156114e057600080fd5b6114ec89838a01611389565b9350608088013591508082111561150257600080fd5b5061150f888289016113fa565b9150509295509295909350565b6020808252825182820181905260009190848201906040850190845b8181101561155d5783516001600160a01b031683529284019291840191600101611538565b50909695505050505050565b6000806040838503121561157c57600080fd5b823567ffffffffffffffff8082111561159457600080fd5b818501915085601f8301126115a857600080fd5b813560206115b582611365565b6040516115c28282611338565b83815260059390931b85018201928281019150898411156115e257600080fd5b948201945b838610156116095785356115fa81611235565b825294820194908201906115e7565b9650508601359250508082111561161f57600080fd5b5061162c85828601611389565b9150509250929050565b600081518084526020808501945080840160005b838110156116665781518752958201959082019060010161164a565b509495945050505050565b6020815260006112a96020830184611636565b60006020828403121561169657600080fd5b81356112a981611235565b600080604083850312156116b457600080fd5b82356116bf81611235565b9150602083013580151581146116d457600080fd5b809150509250929050565b600080604083850312156116f257600080fd5b82356116fd81611235565b915060208301356116d481611235565b600080600080600060a0868803121561172557600080fd5b853561173081611235565b9450602086013561174081611235565b93506040860135925060608601359150608086013567ffffffffffffffff81111561176a57600080fd5b61150f888289016113fa565b600181811c9082168061178a57607f821691505b6020821081036117aa57634e487b7160e01b600052602260045260246000fd5b50919050565b634e487b7160e01b600052603260045260246000fd5b634e487b7160e01b600052601160045260246000fd5b6000600182016117ee576117ee6117c6565b5060010190565b80820180821115610469576104696117c6565b60408152600061181b6040830185611636565b828103602084015261182d8185611636565b95945050505050565b60006001600160a01b03808816835280871660208401525060a0604083015261186260a0830186611636565b82810360608401526118748186611636565b9050828103608084015261188881856112c9565b98975050505050505050565b6000602082840312156118a657600080fd5b81516112a981611276565b600060033d11156118ca5760046000803e5060005160e01c5b90565b600060443d10156118db5790565b6040516003193d81016004833e81513d67ffffffffffffffff816024840111818411171561190b57505050505090565b82850191508151818111156119235750505050505090565b843d870101602082850101111561193d5750505050505090565b61194c60208286010187611338565b509095945050505050565b60006001600160a01b03808816835280871660208401525084604083015283606083015260a0608083015261198f60a08301846112c9565b97965050505050505056fea264697066735822122018576fa19662f40ed0cc64b4da4a6e8e2a11aefd52c41590d918866c253cde7f64736f6c63430008140033a264697066735822122026f94692875e4c7a8bc0e8d04849cb823c16f725afdc251c0b17f381e30fba7c64736f6c63430008140033",
  "linkReferences": {},
  "deployedLinkReferences": {}
}