{
  "_format": "hh-sol-artifact-1",
  "contractName": "EstateFactory",
  "sourceName": "contracts/FactoryEstate.sol",
  "abi": [
    {
      "inputs": [],
      "stateMutability": "nonpayable",
      "type": "constructor"
    },
    {
      "anonymous": false,
      "inputs": [
        {
          "indexed": true,
          "internalType": "address",
          "name": "account",
          "type": "address"
        },
        {
          "indexed": true,
          "internalType": "address",
          "name": "operator",
          "type": "address"
        },
        {
          "indexed": false,
          "internalType": "bool",
          "name": "approved",
          "type": "bool"
        }
      ],
      "name": "ApprovalForAll",
      "type": "event"
    },
    {
      "anonymous": false,
      "inputs": [
        {
          "indexed": true,
          "internalType": "address",
          "name": "operator",
          "type": "address"
        },
        {
          "indexed": true,
          "internalType": "address",
          "name": "from",
          "type": "address"
        },
        {
          "indexed": true,
          "internalType": "address",
          "name": "to",
          "type": "address"
        },
        {
          "indexed": false,
          "internalType": "uint256[]",
          "name": "ids",
          "type": "uint256[]"
        },
        {
          "indexed": false,
          "internalType": "uint256[]",
          "name": "values",
          "type": "uint256[]"
        }
      ],
      "name": "TransferBatch",
      "type": "event"
    },
    {
      "anonymous": false,
      "inputs": [
        {
          "indexed": true,
          "internalType": "address",
          "name": "operator",
          "type": "address"
        },
        {
          "indexed": true,
          "internalType": "address",
          "name": "from",
          "type": "address"
        },
        {
          "indexed": true,
          "internalType": "address",
          "name": "to",
          "type": "address"
        },
        {
          "indexed": false,
          "internalType": "uint256",
          "name": "id",
          "type": "uint256"
        },
        {
          "indexed": false,
          "internalType": "uint256",
          "name": "value",
          "type": "uint256"
        }
      ],
      "name": "TransferSingle",
      "type": "event"
    },
    {
      "anonymous": false,
      "inputs": [
        {
          "indexed": false,
          "internalType": "string",
          "name": "value",
          "type": "string"
        },
        {
          "indexed": true,
          "internalType": "uint256",
          "name": "id",
          "type": "uint256"
        }
      ],
      "name": "URI",
      "type": "event"
    },
    {
      "inputs": [
        {
          "internalType": "address",
          "name": "account",
          "type": "address"
        },
        {
          "internalType": "uint256",
          "name": "id",
          "type": "uint256"
        }
      ],
      "name": "balanceOf",
      "outputs": [
        {
          "internalType": "uint256",
          "name": "",
          "type": "uint256"
        }
      ],
      "stateMutability": "view",
      "type": "function"
    },
    {
      "inputs": [
        {
          "internalType": "address[]",
          "name": "accounts",
          "type": "address[]"
        },
        {
          "internalType": "uint256[]",
          "name": "ids",
          "type": "uint256[]"
        }
      ],
      "name": "balanceOfBatch",
      "outputs": [
        {
          "internalType": "uint256[]",
          "name": "",
          "type": "uint256[]"
        }
      ],
      "stateMutability": "view",
      "type": "function"
    },
    {
      "inputs": [
        {
          "internalType": "uint256",
          "name": "estateId",
          "type": "uint256"
        }
      ],
      "name": "getEstateAuctionListing",
      "outputs": [
        {
          "internalType": "address",
          "name": "",
          "type": "address"
        }
      ],
      "stateMutability": "view",
      "type": "function"
    },
    {
      "inputs": [],
      "name": "getNumEstates",
      "outputs": [
        {
          "internalType": "uint256",
          "name": "",
          "type": "uint256"
        }
      ],
      "stateMutability": "view",
      "type": "function"
    },
    {
      "inputs": [
        {
          "internalType": "address",
          "name": "account",
          "type": "address"
        },
        {
          "internalType": "address",
          "name": "operator",
          "type": "address"
        }
      ],
      "name": "isApprovedForAll",
      "outputs": [
        {
          "internalType": "bool",
          "name": "",
          "type": "bool"
        }
      ],
      "stateMutability": "view",
      "type": "function"
    },
    {
      "inputs": [
        {
          "internalType": "uint256",
          "name": "estateId",
          "type": "uint256"
        }
      ],
      "name": "listEstateForAuction",
      "outputs": [],
      "stateMutability": "nonpayable",
      "type": "function"
    },
    {
      "inputs": [
        {
          "internalType": "uint256",
          "name": "estateId",
          "type": "uint256"
        }
      ],
      "name": "listEstateForInvestment",
      "outputs": [],
      "stateMutability": "nonpayable",
      "type": "function"
    },
    {
      "inputs": [
        {
          "internalType": "address",
          "name": "from",
          "type": "address"
        },
        {
          "internalType": "address",
          "name": "to",
          "type": "address"
        },
        {
          "internalType": "uint256[]",
          "name": "ids",
          "type": "uint256[]"
        },
        {
          "internalType": "uint256[]",
          "name": "amounts",
          "type": "uint256[]"
        },
        {
          "internalType": "bytes",
          "name": "data",
          "type": "bytes"
        }
      ],
      "name": "safeBatchTransferFrom",
      "outputs": [],
      "stateMutability": "nonpayable",
      "type": "function"
    },
    {
      "inputs": [
        {
          "internalType": "address",
          "name": "from",
          "type": "address"
        },
        {
          "internalType": "address",
          "name": "to",
          "type": "address"
        },
        {
          "internalType": "uint256",
          "name": "id",
          "type": "uint256"
        },
        {
          "internalType": "uint256",
          "name": "amount",
          "type": "uint256"
        },
        {
          "internalType": "bytes",
          "name": "data",
          "type": "bytes"
        }
      ],
      "name": "safeTransferFrom",
      "outputs": [],
      "stateMutability": "nonpayable",
      "type": "function"
    },
    {
      "inputs": [
        {
          "internalType": "address",
          "name": "operator",
          "type": "address"
        },
        {
          "internalType": "bool",
          "name": "approved",
          "type": "bool"
        }
      ],
      "name": "setApprovalForAll",
      "outputs": [],
      "stateMutability": "nonpayable",
      "type": "function"
    },
    {
      "inputs": [
        {
          "internalType": "bytes4",
          "name": "interfaceId",
          "type": "bytes4"
        }
      ],
      "name": "supportsInterface",
      "outputs": [
        {
          "internalType": "bool",
          "name": "",
          "type": "bool"
        }
      ],
      "stateMutability": "view",
      "type": "function"
    },
    {
      "inputs": [
        {
          "internalType": "string",
          "name": "_metadata",
          "type": "string"
        },
        {
          "internalType": "uint256",
          "name": "_evaluation",
          "type": "uint256"
        }
      ],
      "name": "tokenizeEstate",
      "outputs": [],
      "stateMutability": "nonpayable",
      "type": "function"
    },
    {
      "inputs": [
        {
          "internalType": "uint256",
          "name": "",
          "type": "uint256"
        }
      ],
      "name": "uri",
      "outputs": [
        {
          "internalType": "string",
          "name": "",
          "type": "string"
        }
      ],
      "stateMutability": "view",
      "type": "function"
    }
  ],
  "bytecode": "0x608060405260016003553480156200001657600080fd5b50604080516020810190915260008152620000318162000038565b50620001bb565b6002620000468282620000ef565b5050565b634e487b7160e01b600052604160045260246000fd5b600181811c908216806200007557607f821691505b6020821081036200009657634e487b7160e01b600052602260045260246000fd5b50919050565b601f821115620000ea57600081815260208120601f850160051c81016020861015620000c55750805b601f850160051c820191505b81811015620000e657828155600101620000d1565b5050505b505050565b81516001600160401b038111156200010b576200010b6200004a565b62000123816200011c845462000060565b846200009c565b602080601f8311600181146200015b5760008415620001425750858301515b600019600386901b1c1916600185901b178555620000e6565b600085815260208120601f198616915b828110156200018c578886015182559484019460019091019084016200016b565b5085821015620001ab5787850151600019600388901b60f8161c191681555b5050505050600190811b01905550565b615ba180620001cb6000396000f3fe60806040523480156200001157600080fd5b5060043610620000f05760003560e01c80634a2454be1162000097578063ba1b60fc116200006e578063ba1b60fc1462000228578063e6efd4d0146200023f578063e985e9c51462000256578063f242432a146200029557600080fd5b80634a2454be14620001a65780634e1273f414620001eb578063a22cb465146200021157600080fd5b80632eb2c2d611620000cc5780632eb2c2d6146200016d5780633ba44be614620001865780633d55daf8146200019d57600080fd5b8062fdd58e14620000f557806301ffc9a7146200011f5780630e89341c1462000147575b600080fd5b6200010c620001063660046200157c565b620002ac565b6040519081526020015b60405180910390f35b6200013662000130366004620015c0565b62000346565b604051901515815260200162000116565b6200015e62000158366004620015e0565b62000399565b6040516200011691906200164e565b620001846200017e366004620017d0565b62000435565b005b620001846200019736600462001888565b620004cf565b6003546200010c565b620001d2620001b7366004620015e0565b6000908152600860205260409020546001600160a01b031690565b6040516001600160a01b03909116815260200162000116565b62000202620001fc366004620018e6565b620005fa565b604051620001169190620019fd565b620001846200022236600462001a12565b62000739565b6200018462000239366004620015e0565b6200074a565b6200018462000250366004620015e0565b62000912565b620001366200026736600462001a52565b6001600160a01b03918216600090815260016020908152604080832093909416825291909152205460ff1690565b62000184620002a636600462001a8a565b62000a40565b60006001600160a01b0383166200031d5760405162461bcd60e51b815260206004820152602a60248201527f455243313135353a2061646472657373207a65726f206973206e6f742061207660448201526930b634b21037bbb732b960b11b60648201526084015b60405180910390fd5b506000818152602081815260408083206001600160a01b03861684529091529020545b92915050565b60006001600160e01b03198216636cdb3d1360e11b14806200037857506001600160e01b031982166303a24d0760e21b145b806200034057506301ffc9a760e01b6001600160e01b031983161462000340565b606060028054620003aa9062001af7565b80601f0160208091040260200160405190810160405280929190818152602001828054620003d89062001af7565b8015620004295780601f10620003fd5761010080835404028352916020019162000429565b820191906000526020600020905b8154815290600101906020018083116200040b57829003601f168201915b50505050509050919050565b6001600160a01b03851633148062000454575062000454853362000267565b620004b95760405162461bcd60e51b815260206004820152602e60248201527f455243313135353a2063616c6c6572206973206e6f7420746f6b656e206f776e60448201526d195c881bdc88185c1c1c9bdd995960921b606482015260840162000314565b620004c8858585858562000ad3565b5050505050565b600081116200053a5760405162461bcd60e51b815260206004820152603060248201527f4576616c756174696f6e206f662074686520457374617465206d75737420626560448201526f206d6f7265207468616e207a65726f2160801b606482015260840162000314565b600380543391819060006200054f8362001b49565b919050555062000572828260016040518060200160405280600081525062000d47565b6200057d8462000d5b565b604080516080810182528281523360208083019182528284018781526060840189815260008781526006909352949091208351815591516001830180546001600160a01b0319166001600160a01b0390921691909117905551600282015591519091906003820190620005f1908262001bb4565b50505050505050565b60608151835114620006615760405162461bcd60e51b815260206004820152602960248201527f455243313135353a206163636f756e747320616e6420696473206c656e677468604482015268040dad2e6dac2e8c6d60bb1b606482015260840162000314565b6000835167ffffffffffffffff81111562000680576200068062001663565b604051908082528060200260200182016040528015620006aa578160200160208202803683370190505b50905060005b84518110156200073157620006fe858281518110620006d357620006d362001c81565b6020026020010151858381518110620006f057620006f062001c81565b6020026020010151620002ac565b82828151811062000713576200071362001c81565b6020908102919091010152620007298162001b49565b9050620006b0565b509392505050565b6200074633838362000d69565b5050565b6000818152600660205260409020600101546001600160a01b03163314620007cb5760405162461bcd60e51b815260206004820152602d60248201527f596f7520617265206e6f74207468652063757272656e74206f776e6572206f6660448201526c2074686973204573746174652160981b606482015260840162000314565b60004233604051602001620007fc92919091825260601b6bffffffffffffffffffffffff1916602082015260340190565b604051602081830303815290604052805190602001209050620008a0600082604051806020016200082d9062001543565b601f1982820381018352601f909101166040818152600088815260066020908152919020600201546200086b92899201918252602082015260400190565b60408051601f19818403018152908290526200088b929160200162001c97565b60405160208183030381529060405262000e4b565b600480546001600160a01b0319166001600160a01b03929092169182179055604080516020810190915260008152620008e0913391859060019062000f5c565b5060045460009182526007602052604090912080546001600160a01b0319166001600160a01b03909216919091179055565b600042336040516020016200094392919091825260601b6bffffffffffffffffffffffff1916602082015260340190565b604051602081830303815290604052805190602001209050620009ce60008260405180602001620009749062001551565b601f1982820381018352601f9091011660408181526000888152600660209081529082902060028101546001909101549184018a9052918301919091524260608301526001600160a01b0316608082015260a0016200086b565b600580546001600160a01b0319166001600160a01b0392909216918217905560408051602081019091526000815262000a0e913391859060019062000f5c565b5060055460009182526008602052604090912080546001600160a01b0319166001600160a01b03909216919091179055565b6001600160a01b03851633148062000a5f575062000a5f853362000267565b62000ac45760405162461bcd60e51b815260206004820152602e60248201527f455243313135353a2063616c6c6572206973206e6f7420746f6b656e206f776e60448201526d195c881bdc88185c1c1c9bdd995960921b606482015260840162000314565b620004c8858585858562000f5c565b815183511462000b375760405162461bcd60e51b815260206004820152602860248201527f455243313135353a2069647320616e6420616d6f756e7473206c656e677468206044820152670dad2e6dac2e8c6d60c31b606482015260840162000314565b6001600160a01b03841662000b9d5760405162461bcd60e51b815260206004820152602560248201527f455243313135353a207472616e7366657220746f20746865207a65726f206164604482015264647265737360d81b606482015260840162000314565b3360005b845181101562000cd557600085828151811062000bc25762000bc262001c81565b60200260200101519050600085838151811062000be35762000be362001c81565b602090810291909101810151600084815280835260408082206001600160a01b038e16835290935291909120549091508181101562000c785760405162461bcd60e51b815260206004820152602a60248201527f455243313135353a20696e73756666696369656e742062616c616e636520666f60448201526939103a3930b739b332b960b11b606482015260840162000314565b6000838152602081815260408083206001600160a01b038e8116855292528083208585039055908b1682528120805484929062000cb790849062001cca565b925050819055505050508062000ccd9062001b49565b905062000ba1565b50846001600160a01b0316866001600160a01b0316826001600160a01b03167f4a39dc06d4c0dbc64b70af90fd698a233a518aa5d07e595d983b8c0526c8f7fb878760405162000d2792919062001ce0565b60405180910390a462000d3f81878787878762001113565b505050505050565b62000d5584848484620012cb565b50505050565b62000d6681620013e0565b50565b816001600160a01b0316836001600160a01b03160362000dde5760405162461bcd60e51b815260206004820152602960248201527f455243313135353a2073657474696e6720617070726f76616c20737461747573604482015268103337b91039b2b63360b91b606482015260840162000314565b6001600160a01b03838116600081815260016020908152604080832094871680845294825291829020805460ff191686151590811790915591519182527f17307eab39ab6107e8899845ad3d59bd9653f200f220920489ca2b5937696c31910160405180910390a3505050565b60008347101562000e9f5760405162461bcd60e51b815260206004820152601d60248201527f437265617465323a20696e73756666696369656e742062616c616e6365000000604482015260640162000314565b815160000362000ef25760405162461bcd60e51b815260206004820181905260248201527f437265617465323a2062797465636f6465206c656e677468206973207a65726f604482015260640162000314565b8282516020840186f590506001600160a01b03811662000f555760405162461bcd60e51b815260206004820152601960248201527f437265617465323a204661696c6564206f6e206465706c6f7900000000000000604482015260640162000314565b9392505050565b6001600160a01b03841662000fc25760405162461bcd60e51b815260206004820152602560248201527f455243313135353a207472616e7366657220746f20746865207a65726f206164604482015264647265737360d81b606482015260840162000314565b33600062000fd085620013ee565b9050600062000fdf85620013ee565b90506000868152602081815260408083206001600160a01b038c16845290915290205485811015620010675760405162461bcd60e51b815260206004820152602a60248201527f455243313135353a20696e73756666696369656e742062616c616e636520666f60448201526939103a3930b739b332b960b11b606482015260840162000314565b6000878152602081815260408083206001600160a01b038d8116855292528083208985039055908a16825281208054889290620010a690849062001cca565b909155505060408051888152602081018890526001600160a01b03808b16928c821692918816917fc3d58168c5ae7397731d063d5bbf3d657854427343f4c083240f7aacaa2d0f62910160405180910390a462001108848a8a8a8a8a6200143c565b505050505050505050565b6001600160a01b0384163b1562000d3f5760405163bc197c8160e01b81526001600160a01b0385169063bc197c81906200115a908990899088908890889060040162001d12565b6020604051808303816000875af192505050801562001198575060408051601f3d908101601f19168201909252620011959181019062001d76565b60015b6200125857620011a762001d96565b806308c379a003620011e75750620011be62001db3565b80620011cb5750620011e9565b8060405162461bcd60e51b81526004016200031491906200164e565b505b60405162461bcd60e51b815260206004820152603460248201527f455243313135353a207472616e7366657220746f206e6f6e2d4552433131353560448201527f526563656976657220696d706c656d656e746572000000000000000000000000606482015260840162000314565b6001600160e01b0319811663bc197c8160e01b14620005f15760405162461bcd60e51b815260206004820152602860248201527f455243313135353a204552433131353552656365697665722072656a656374656044820152676420746f6b656e7360c01b606482015260840162000314565b6001600160a01b0384166200132d5760405162461bcd60e51b815260206004820152602160248201527f455243313135353a206d696e7420746f20746865207a65726f206164647265736044820152607360f81b606482015260840162000314565b3360006200133b85620013ee565b905060006200134a85620013ee565b90506000868152602081815260408083206001600160a01b038b168452909152812080548792906200137e90849062001cca565b909155505060408051878152602081018790526001600160a01b03808a1692600092918716917fc3d58168c5ae7397731d063d5bbf3d657854427343f4c083240f7aacaa2d0f62910160405180910390a4620005f1836000898989896200143c565b600262000746828262001bb4565b604080516001808252818301909252606091600091906020808301908036833701905050905082816000815181106200142b576200142b62001c81565b602090810291909101015292915050565b6001600160a01b0384163b1562000d3f5760405163f23a6e6160e01b81526001600160a01b0385169063f23a6e619062001483908990899088908890889060040162001e43565b6020604051808303816000875af1925050508015620014c1575060408051601f3d908101601f19168201909252620014be9181019062001d76565b60015b620014d057620011a762001d96565b6001600160e01b0319811663f23a6e6160e01b14620005f15760405162461bcd60e51b815260206004820152602860248201527f455243313135353a204552433131353552656365697665722072656a656374656044820152676420746f6b656e7360c01b606482015260840162000314565b6121e28062001e8983390190565b611b01806200406b83390190565b80356001600160a01b03811681146200157757600080fd5b919050565b600080604083850312156200159057600080fd5b6200159b836200155f565b946020939093013593505050565b6001600160e01b03198116811462000d6657600080fd5b600060208284031215620015d357600080fd5b813562000f5581620015a9565b600060208284031215620015f357600080fd5b5035919050565b60005b8381101562001617578181015183820152602001620015fd565b50506000910152565b600081518084526200163a816020860160208601620015fa565b601f01601f19169290920160200192915050565b60208152600062000f55602083018462001620565b634e487b7160e01b600052604160045260246000fd5b601f8201601f1916810167ffffffffffffffff81118282101715620016a257620016a262001663565b6040525050565b600067ffffffffffffffff821115620016c657620016c662001663565b5060051b60200190565b600082601f830112620016e257600080fd5b81356020620016f182620016a9565b60405162001700828262001679565b83815260059390931b85018201928281019150868411156200172157600080fd5b8286015b848110156200173e578035835291830191830162001725565b509695505050505050565b600067ffffffffffffffff83111562001766576200176662001663565b6040516200177f601f8501601f19166020018262001679565b8091508381528484840111156200179557600080fd5b83836020830137600060208583010152509392505050565b600082601f830112620017bf57600080fd5b62000f558383356020850162001749565b600080600080600060a08688031215620017e957600080fd5b620017f4866200155f565b945062001804602087016200155f565b9350604086013567ffffffffffffffff808211156200182257600080fd5b6200183089838a01620016d0565b945060608801359150808211156200184757600080fd5b6200185589838a01620016d0565b935060808801359150808211156200186c57600080fd5b506200187b88828901620017ad565b9150509295509295909350565b600080604083850312156200189c57600080fd5b823567ffffffffffffffff811115620018b457600080fd5b8301601f81018513620018c657600080fd5b620018d78582356020840162001749565b95602094909401359450505050565b60008060408385031215620018fa57600080fd5b823567ffffffffffffffff808211156200191357600080fd5b818501915085601f8301126200192857600080fd5b813560206200193782620016a9565b60405162001946828262001679565b83815260059390931b85018201928281019150898411156200196757600080fd5b948201945b83861015620019905762001980866200155f565b825294820194908201906200196c565b96505086013592505080821115620019a757600080fd5b50620019b685828601620016d0565b9150509250929050565b600081518084526020808501945080840160005b83811015620019f257815187529582019590820190600101620019d4565b509495945050505050565b60208152600062000f556020830184620019c0565b6000806040838503121562001a2657600080fd5b62001a31836200155f565b91506020830135801515811462001a4757600080fd5b809150509250929050565b6000806040838503121562001a6657600080fd5b62001a71836200155f565b915062001a81602084016200155f565b90509250929050565b600080600080600060a0868803121562001aa357600080fd5b62001aae866200155f565b945062001abe602087016200155f565b93506040860135925060608601359150608086013567ffffffffffffffff81111562001ae957600080fd5b6200187b88828901620017ad565b600181811c9082168062001b0c57607f821691505b60208210810362001b2d57634e487b7160e01b600052602260045260246000fd5b50919050565b634e487b7160e01b600052601160045260246000fd5b60006001820162001b5e5762001b5e62001b33565b5060010190565b601f82111562001baf57600081815260208120601f850160051c8101602086101562001b8e5750805b601f850160051c820191505b8181101562000d3f5782815560010162001b9a565b505050565b815167ffffffffffffffff81111562001bd15762001bd162001663565b62001be98162001be2845462001af7565b8462001b65565b602080601f83116001811462001c21576000841562001c085750858301515b600019600386901b1c1916600185901b17855562000d3f565b600085815260208120601f198616915b8281101562001c525788860151825594840194600190910190840162001c31565b508582101562001c715787850151600019600388901b60f8161c191681555b5050505050600190811b01905550565b634e487b7160e01b600052603260045260246000fd5b6000835162001cab818460208801620015fa565b83519083019062001cc1818360208801620015fa565b01949350505050565b8082018082111562000340576200034062001b33565b60408152600062001cf56040830185620019c0565b828103602084015262001d098185620019c0565b95945050505050565b60006001600160a01b03808816835280871660208401525060a0604083015262001d4060a0830186620019c0565b828103606084015262001d548186620019c0565b9050828103608084015262001d6a818562001620565b98975050505050505050565b60006020828403121562001d8957600080fd5b815162000f5581620015a9565b600060033d111562001db05760046000803e5060005160e01c5b90565b600060443d101562001dc25790565b6040516003193d81016004833e81513d67ffffffffffffffff816024840111818411171562001df357505050505090565b828501915081518181111562001e0c5750505050505090565b843d870101602082850101111562001e275750505050505090565b62001e386020828601018762001679565b509095945050505050565b60006001600160a01b03808816835280871660208401525084604083015283606083015260a0608083015262001e7d60a083018462001620565b97965050505050505056fe60806040523480156200001157600080fd5b50604051620021e2380380620021e28339810160408190526200003491620003de565b6040805160208101909152600081526200004e816200009c565b5060038290556004819055600580546001600160a01b0319163390811790915560408051602081019091526000808252620000949291670de0b6b3a764000090620000ae565b505062000760565b6002620000aa8282620004a4565b5050565b6001600160a01b038416620001145760405162461bcd60e51b815260206004820152602160248201527f455243313135353a206d696e7420746f20746865207a65726f206164647265736044820152607360f81b60648201526084015b60405180910390fd5b3360006200012285620001d0565b905060006200013185620001d0565b90506000868152602081815260408083206001600160a01b038b168452909152812080548792906200016590849062000570565b909155505060408051878152602081018790526001600160a01b03808a1692600092918716917fc3d58168c5ae7397731d063d5bbf3d657854427343f4c083240f7aacaa2d0f62910160405180910390a4620001c78360008989898962000226565b50505050505050565b604080516001808252818301909252606091600091906020808301908036833701905050905082816000815181106200020d576200020d62000598565b602090810291909101015292915050565b505050505050565b6001600160a01b0384163b156200021e5760405163f23a6e6160e01b81526001600160a01b0385169063f23a6e61906200026d9089908990889088908890600401620005f6565b6020604051808303816000875af1925050508015620002ab575060408051601f3d908101601f19168201909252620002a8918101906200063d565b60015b6200036b57620002ba62000670565b806308c379a003620002fa5750620002d1620006bc565b80620002de5750620002fc565b8060405162461bcd60e51b81526004016200010b91906200074b565b505b60405162461bcd60e51b815260206004820152603460248201527f455243313135353a207472616e7366657220746f206e6f6e2d4552433131353560448201527f526563656976657220696d706c656d656e74657200000000000000000000000060648201526084016200010b565b6001600160e01b0319811663f23a6e6160e01b14620001c75760405162461bcd60e51b815260206004820152602860248201527f455243313135353a204552433131353552656365697665722072656a656374656044820152676420746f6b656e7360c01b60648201526084016200010b565b60008060408385031215620003f257600080fd5b505080516020909101519092909150565b634e487b7160e01b600052604160045260246000fd5b600181811c908216806200042e57607f821691505b6020821081036200044f57634e487b7160e01b600052602260045260246000fd5b50919050565b601f8211156200049f57600081815260208120601f850160051c810160208610156200047e5750805b601f850160051c820191505b818110156200021e578281556001016200048a565b505050565b81516001600160401b03811115620004c057620004c062000403565b620004d881620004d1845462000419565b8462000455565b602080601f831160018114620005105760008415620004f75750858301515b600019600386901b1c1916600185901b1785556200021e565b600085815260208120601f198616915b82811015620005415788860151825594840194600190910190840162000520565b5085821015620005605787850151600019600388901b60f8161c191681555b5050505050600190811b01905550565b808201808211156200059257634e487b7160e01b600052601160045260246000fd5b92915050565b634e487b7160e01b600052603260045260246000fd5b6000815180845260005b81811015620005d657602081850181015186830182015201620005b8565b506000602082860101526020601f19601f83011685010191505092915050565b6001600160a01b03868116825285166020820152604081018490526060810183905260a0608082018190526000906200063290830184620005ae565b979650505050505050565b6000602082840312156200065057600080fd5b81516001600160e01b0319811681146200066957600080fd5b9392505050565b600060033d11156200068a5760046000803e5060005160e01c5b90565b601f8201601f191681016001600160401b0381118282101715620006b557620006b562000403565b6040525050565b600060443d1015620006cb5790565b6040516003193d81016004833e81513d6001600160401b038083116024840183101715620006fb57505050505090565b8285019150815181811115620007145750505050505090565b843d87010160208285010111156200072f5750505050505090565b62000740602082860101876200068d565b509095945050505050565b602081526000620006696020830184620005ae565b611a7280620007706000396000f3fe6080604052600436106100dc5760003560e01c8063a22cb4651161007f578063df48981a11610059578063df48981a1461026d578063e985e9c514610280578063f23a6e61146102c9578063f242432a146102f557600080fd5b8063a22cb465146101f3578063bb31b3b414610213578063bc197c811461022857600080fd5b80632eb2c2d6116100bb5780632eb2c2d6146101715780634ba8ae81146101935780634e1273f4146101a65780638fcb4e5b146101d357600080fd5b8062fdd58e146100e157806301ffc9a7146101145780630e89341c14610144575b600080fd5b3480156100ed57600080fd5b506101016100fc366004611310565b610315565b6040519081526020015b60405180910390f35b34801561012057600080fd5b5061013461012f366004611353565b6103ae565b604051901515815260200161010b565b34801561015057600080fd5b5061016461015f366004611377565b6103fe565b60405161010b91906113d6565b34801561017d57600080fd5b5061019161018c366004611535565b610492565b005b6101916101a1366004611377565b610525565b3480156101b257600080fd5b506101c66101c13660046115df565b610629565b60405161010b91906116e5565b3480156101df57600080fd5b506101916101ee366004611310565b610753565b3480156101ff57600080fd5b5061019161020e3660046116f8565b610841565b34801561021f57600080fd5b50610101600081565b34801561023457600080fd5b50610254610243366004611535565b63bc197c8160e01b95945050505050565b6040516001600160e01b0319909116815260200161010b565b61019161027b366004611377565b610850565b34801561028c57600080fd5b5061013461029b366004611734565b6001600160a01b03918216600090815260016020908152604080832093909416825291909152205460ff1690565b3480156102d557600080fd5b506102546102e4366004611767565b63f23a6e6160e01b95945050505050565b34801561030157600080fd5b50610191610310366004611767565b610a8a565b60006001600160a01b0383166103855760405162461bcd60e51b815260206004820152602a60248201527f455243313135353a2061646472657373207a65726f206973206e6f742061207660448201526930b634b21037bbb732b960b11b60648201526084015b60405180910390fd5b506000818152602081815260408083206001600160a01b03861684529091529020545b92915050565b60006001600160e01b03198216636cdb3d1360e11b14806103df57506001600160e01b031982166303a24d0760e21b145b806103a857506301ffc9a760e01b6001600160e01b03198316146103a8565b60606002805461040d906117cc565b80601f0160208091040260200160405190810160405280929190818152602001828054610439906117cc565b80156104865780601f1061045b57610100808354040283529160200191610486565b820191906000526020600020905b81548152906001019060200180831161046957829003601f168201915b50505050509050919050565b6001600160a01b0385163314806104ae57506104ae853361029b565b6105115760405162461bcd60e51b815260206004820152602e60248201527f455243313135353a2063616c6c6572206973206e6f7420746f6b656e206f776e60448201526d195c881bdc88185c1c1c9bdd995960921b606482015260840161037c565b61051e8585858585610b16565b5050505050565b336000908152600660205260409020548111156105845760405162461bcd60e51b815260206004820152601e60248201527f496e73756666696369656e742073686172657320746f20626520736f6c640000604482015260640161037c565b6105a1333060008460405180602001604052806000815250610a8a565b6000816064600454670de0b6b3a76400006105bc919061181c565b6105c69190611833565b6105d0919061181c565b604051909150339082156108fc029083906000818181858888f19350505050158015610600573d6000803e3d6000fd5b503360009081526006602052604081208054849290610620908490611855565b90915550505050565b6060815183511461068e5760405162461bcd60e51b815260206004820152602960248201527f455243313135353a206163636f756e747320616e6420696473206c656e677468604482015268040dad2e6dac2e8c6d60bb1b606482015260840161037c565b6000835167ffffffffffffffff8111156106aa576106aa6113e9565b6040519080825280602002602001820160405280156106d3578160200160208202803683370190505b50905060005b845181101561074b5761071e8582815181106106f7576106f7611868565b602002602001015185838151811061071157610711611868565b6020026020010151610315565b82828151811061073057610730611868565b60209081029190910101526107448161187e565b90506106d9565b509392505050565b336000908152600660205260409020548111156107d85760405162461bcd60e51b815260206004820152603260248201527f496e73756666696369656e742073686172657320746f206265207472616e736660448201527f657272656420746f20726563657069656e740000000000000000000000000000606482015260840161037c565b6107f5338360008460405180602001604052806000815250610a8a565b3360009081526006602052604081208054839290610814908490611855565b90915550506001600160a01b03821660009081526006602052604081208054839290610620908490611897565b61084c338383610d74565b5050565b60648111156108c75760405162461bcd60e51b815260206004820152603560248201527f4d6178696d756d206e756d626572206f6620736861726573207468617420636160448201527f6e20626520707572636861736564206973203130300000000000000000000000606482015260840161037c565b6000811161093d5760405162461bcd60e51b815260206004820152603160248201527f4e756d626572206f6620736861726573207075726368617365642063616e6e6f60448201527f74206265207a65726f206f72206c657373000000000000000000000000000000606482015260840161037c565b610948306000610315565b81106109ad5760405162461bcd60e51b815260206004820152602e60248201527f5468657265206172656e27742073756666696369656e7420736861726573207460448201526d1bc81899481c1d5c98da185cd95960921b606482015260840161037c565b6000816064600454670de0b6b3a76400006109c8919061181c565b6109d29190611833565b6109dc919061181c565b9050348114610a2d5760405162461bcd60e51b815260206004820152601560248201527f496e636f72726563742066756e64732073656e74210000000000000000000000604482015260640161037c565b60405130903480156108fc02916000818181858888f19350505050158015610a59573d6000803e3d6000fd5b50610a77303360008560405180602001604052806000815250610a8a565b5033600090815260066020526040902055565b6001600160a01b038516331480610aa65750610aa6853361029b565b610b095760405162461bcd60e51b815260206004820152602e60248201527f455243313135353a2063616c6c6572206973206e6f7420746f6b656e206f776e60448201526d195c881bdc88185c1c1c9bdd995960921b606482015260840161037c565b61051e8585858585610e54565b8151835114610b785760405162461bcd60e51b815260206004820152602860248201527f455243313135353a2069647320616e6420616d6f756e7473206c656e677468206044820152670dad2e6dac2e8c6d60c31b606482015260840161037c565b6001600160a01b038416610bdc5760405162461bcd60e51b815260206004820152602560248201527f455243313135353a207472616e7366657220746f20746865207a65726f206164604482015264647265737360d81b606482015260840161037c565b3360005b8451811015610d06576000858281518110610bfd57610bfd611868565b602002602001015190506000858381518110610c1b57610c1b611868565b602090810291909101810151600084815280835260408082206001600160a01b038e168352909352919091205490915081811015610cae5760405162461bcd60e51b815260206004820152602a60248201527f455243313135353a20696e73756666696369656e742062616c616e636520666f60448201526939103a3930b739b332b960b11b606482015260840161037c565b6000838152602081815260408083206001600160a01b038e8116855292528083208585039055908b16825281208054849290610ceb908490611897565b9250508190555050505080610cff9061187e565b9050610be0565b50846001600160a01b0316866001600160a01b0316826001600160a01b03167f4a39dc06d4c0dbc64b70af90fd698a233a518aa5d07e595d983b8c0526c8f7fb8787604051610d569291906118aa565b60405180910390a4610d6c818787878787610fff565b505050505050565b816001600160a01b0316836001600160a01b031603610de75760405162461bcd60e51b815260206004820152602960248201527f455243313135353a2073657474696e6720617070726f76616c20737461747573604482015268103337b91039b2b63360b91b606482015260840161037c565b6001600160a01b03838116600081815260016020908152604080832094871680845294825291829020805460ff191686151590811790915591519182527f17307eab39ab6107e8899845ad3d59bd9653f200f220920489ca2b5937696c31910160405180910390a3505050565b6001600160a01b038416610eb85760405162461bcd60e51b815260206004820152602560248201527f455243313135353a207472616e7366657220746f20746865207a65726f206164604482015264647265737360d81b606482015260840161037c565b336000610ec4856111ad565b90506000610ed1856111ad565b90506000868152602081815260408083206001600160a01b038c16845290915290205485811015610f575760405162461bcd60e51b815260206004820152602a60248201527f455243313135353a20696e73756666696369656e742062616c616e636520666f60448201526939103a3930b739b332b960b11b606482015260840161037c565b6000878152602081815260408083206001600160a01b038d8116855292528083208985039055908a16825281208054889290610f94908490611897565b909155505060408051888152602081018890526001600160a01b03808b16928c821692918816917fc3d58168c5ae7397731d063d5bbf3d657854427343f4c083240f7aacaa2d0f62910160405180910390a4610ff4848a8a8a8a8a6111f8565b505050505050505050565b6001600160a01b0384163b15610d6c5760405163bc197c8160e01b81526001600160a01b0385169063bc197c819061104390899089908890889088906004016118d8565b6020604051808303816000875af192505050801561107e575060408051601f3d908101601f1916820190925261107b91810190611936565b60015b6111335761108a611953565b806308c379a0036110c3575061109e61196f565b806110a957506110c5565b8060405162461bcd60e51b815260040161037c91906113d6565b505b60405162461bcd60e51b815260206004820152603460248201527f455243313135353a207472616e7366657220746f206e6f6e2d4552433131353560448201527f526563656976657220696d706c656d656e746572000000000000000000000000606482015260840161037c565b6001600160e01b0319811663bc197c8160e01b146111a45760405162461bcd60e51b815260206004820152602860248201527f455243313135353a204552433131353552656365697665722072656a656374656044820152676420746f6b656e7360c01b606482015260840161037c565b50505050505050565b604080516001808252818301909252606091600091906020808301908036833701905050905082816000815181106111e7576111e7611868565b602090810291909101015292915050565b6001600160a01b0384163b15610d6c5760405163f23a6e6160e01b81526001600160a01b0385169063f23a6e619061123c90899089908890889088906004016119f9565b6020604051808303816000875af1925050508015611277575060408051601f3d908101601f1916820190925261127491810190611936565b60015b6112835761108a611953565b6001600160e01b0319811663f23a6e6160e01b146111a45760405162461bcd60e51b815260206004820152602860248201527f455243313135353a204552433131353552656365697665722072656a656374656044820152676420746f6b656e7360c01b606482015260840161037c565b80356001600160a01b038116811461130b57600080fd5b919050565b6000806040838503121561132357600080fd5b61132c836112f4565b946020939093013593505050565b6001600160e01b03198116811461135057600080fd5b50565b60006020828403121561136557600080fd5b81356113708161133a565b9392505050565b60006020828403121561138957600080fd5b5035919050565b6000815180845260005b818110156113b65760208185018101518683018201520161139a565b506000602082860101526020601f19601f83011685010191505092915050565b6020815260006113706020830184611390565b634e487b7160e01b600052604160045260246000fd5b601f8201601f1916810167ffffffffffffffff81118282101715611425576114256113e9565b6040525050565b600067ffffffffffffffff821115611446576114466113e9565b5060051b60200190565b600082601f83011261146157600080fd5b8135602061146e8261142c565b60405161147b82826113ff565b83815260059390931b850182019282810191508684111561149b57600080fd5b8286015b848110156114b6578035835291830191830161149f565b509695505050505050565b600082601f8301126114d257600080fd5b813567ffffffffffffffff8111156114ec576114ec6113e9565b604051611503601f8301601f1916602001826113ff565b81815284602083860101111561151857600080fd5b816020850160208301376000918101602001919091529392505050565b600080600080600060a0868803121561154d57600080fd5b611556866112f4565b9450611564602087016112f4565b9350604086013567ffffffffffffffff8082111561158157600080fd5b61158d89838a01611450565b945060608801359150808211156115a357600080fd5b6115af89838a01611450565b935060808801359150808211156115c557600080fd5b506115d2888289016114c1565b9150509295509295909350565b600080604083850312156115f257600080fd5b823567ffffffffffffffff8082111561160a57600080fd5b818501915085601f83011261161e57600080fd5b8135602061162b8261142c565b60405161163882826113ff565b83815260059390931b850182019282810191508984111561165857600080fd5b948201945b8386101561167d5761166e866112f4565b8252948201949082019061165d565b9650508601359250508082111561169357600080fd5b506116a085828601611450565b9150509250929050565b600081518084526020808501945080840160005b838110156116da578151875295820195908201906001016116be565b509495945050505050565b60208152600061137060208301846116aa565b6000806040838503121561170b57600080fd5b611714836112f4565b91506020830135801515811461172957600080fd5b809150509250929050565b6000806040838503121561174757600080fd5b611750836112f4565b915061175e602084016112f4565b90509250929050565b600080600080600060a0868803121561177f57600080fd5b611788866112f4565b9450611796602087016112f4565b93506040860135925060608601359150608086013567ffffffffffffffff8111156117c057600080fd5b6115d2888289016114c1565b600181811c908216806117e057607f821691505b60208210810361180057634e487b7160e01b600052602260045260246000fd5b50919050565b634e487b7160e01b600052601160045260246000fd5b80820281158282048414176103a8576103a8611806565b60008261185057634e487b7160e01b600052601260045260246000fd5b500490565b818103818111156103a8576103a8611806565b634e487b7160e01b600052603260045260246000fd5b60006001820161189057611890611806565b5060010190565b808201808211156103a8576103a8611806565b6040815260006118bd60408301856116aa565b82810360208401526118cf81856116aa565b95945050505050565b60006001600160a01b03808816835280871660208401525060a0604083015261190460a08301866116aa565b828103606084015261191681866116aa565b9050828103608084015261192a8185611390565b98975050505050505050565b60006020828403121561194857600080fd5b81516113708161133a565b600060033d111561196c5760046000803e5060005160e01c5b90565b600060443d101561197d5790565b6040516003193d81016004833e81513d67ffffffffffffffff81602484011181841117156119ad57505050505090565b82850191508151818111156119c55750505050505090565b843d87010160208285010111156119df5750505050505090565b6119ee602082860101876113ff565b509095945050505050565b60006001600160a01b03808816835280871660208401525084604083015283606083015260a06080830152611a3160a0830184611390565b97965050505050505056fea26469706673582212209a062c283846560a33228ba0b2f4fd53729ae86c8040b4ac70deffb81f3c0d1864736f6c6343000814003360806040523480156200001157600080fd5b5060405162001b0138038062001b0183398101604081905262000034916200009a565b6040805160208101909152600081526200004e8162000088565b506003939093556004919091556007556000600555600880546001600160a01b0319166001600160a01b039092169190911790556200025c565b600262000096828262000190565b5050565b60008060008060808587031215620000b157600080fd5b845160208601516040870151606088015192965090945092506001600160a01b0381168114620000e057600080fd5b939692955090935050565b634e487b7160e01b600052604160045260246000fd5b600181811c908216806200011657607f821691505b6020821081036200013757634e487b7160e01b600052602260045260246000fd5b50919050565b601f8211156200018b57600081815260208120601f850160051c81016020861015620001665750805b601f850160051c820191505b81811015620001875782815560010162000172565b5050505b505050565b81516001600160401b03811115620001ac57620001ac620000eb565b620001c481620001bd845462000101565b846200013d565b602080601f831160018114620001fc5760008415620001e35750858301515b600019600386901b1c1916600185901b17855562000187565b600085815260208120601f198616915b828110156200022d578886015182559484019460019091019084016200020c565b50858210156200024c5787850151600019600388901b60f8161c191681555b5050505050600190811b01905550565b611895806200026c6000396000f3fe6080604052600436106100e75760003560e01c806370740ac91161008a578063e985e9c511610059578063e985e9c51461027b578063f23a6e61146102c4578063f242432a146102f0578063ff22b5911461031057600080fd5b806370740ac9146101fb5780639979ef4514610203578063a22cb46514610216578063bc197c811461023657600080fd5b806314034bd2116100c657806314034bd21461017c5780632eb2c2d6146101a45780634935e740146101c65780634e1273f4146101ce57600080fd5b8062fdd58e146100ec57806301ffc9a71461011f5780630e89341c1461014f575b600080fd5b3480156100f857600080fd5b5061010c610107366004611167565b61033d565b6040519081526020015b60405180910390f35b34801561012b57600080fd5b5061013f61013a3660046111a7565b6103d6565b6040519015158152602001610116565b34801561015b57600080fd5b5061016f61016a3660046111cb565b610426565b604051610116919061122a565b34801561018857600080fd5b506006546040516001600160a01b039091168152602001610116565b3480156101b057600080fd5b506101c46101bf366004611389565b6104ba565b005b6101c461054d565b3480156101da57600080fd5b506101ee6101e9366004611433565b610615565b6040516101169190611539565b6101c461073f565b6101c46102113660046111cb565b610817565b34801561022257600080fd5b506101c461023136600461154c565b6108d2565b34801561024257600080fd5b50610262610251366004611389565b63bc197c8160e01b95945050505050565b6040516001600160e01b03199091168152602001610116565b34801561028757600080fd5b5061013f610296366004611588565b6001600160a01b03918216600090815260016020908152604080832093909416825291909152205460ff1690565b3480156102d057600080fd5b506102626102df3660046115bb565b63f23a6e6160e01b95945050505050565b3480156102fc57600080fd5b506101c461030b3660046115bb565b6108e1565b34801561031c57600080fd5b5061010c61032b366004611620565b60096020526000908152604090205481565b60006001600160a01b0383166103ad5760405162461bcd60e51b815260206004820152602a60248201527f455243313135353a2061646472657373207a65726f206973206e6f742061207660448201526930b634b21037bbb732b960b11b60648201526084015b60405180910390fd5b506000818152602081815260408083206001600160a01b03861684529091529020545b92915050565b60006001600160e01b03198216636cdb3d1360e11b148061040757506001600160e01b031982166303a24d0760e21b145b806103d057506301ffc9a760e01b6001600160e01b03198316146103d0565b6060600280546104359061163b565b80601f01602080910402602001604051908101604052809291908181526020018280546104619061163b565b80156104ae5780601f10610483576101008083540402835291602001916104ae565b820191906000526020600020905b81548152906001019060200180831161049157829003601f168201915b50505050509050919050565b6001600160a01b0385163314806104d657506104d68533610296565b6105395760405162461bcd60e51b815260206004820152602e60248201527f455243313135353a2063616c6c6572206973206e6f7420746f6b656e206f776e60448201526d195c881bdc88185c1c1c9bdd995960921b60648201526084016103a4565b610546858585858561096d565b5050505050565b6006546001600160a01b031633146106135733600090815260096020526040812054908190036105d35760405162461bcd60e51b815260206004820152602b60248201527f596f752068617665206e6f7420706c6163656420616e792062657420696e207460448201526a3434b99030bab1ba34b7b760a91b60648201526084016103a4565b604051339082156108fc029083906000818181858888f19350505050158015610600573d6000803e3d6000fd5b5050336000908152600960205260408120555b565b6060815183511461067a5760405162461bcd60e51b815260206004820152602960248201527f455243313135353a206163636f756e747320616e6420696473206c656e677468604482015268040dad2e6dac2e8c6d60bb1b60648201526084016103a4565b6000835167ffffffffffffffff8111156106965761069661123d565b6040519080825280602002602001820160405280156106bf578160200160208202803683370190505b50905060005b84518110156107375761070a8582815181106106e3576106e3611675565b60200260200101518583815181106106fd576106fd611675565b602002602001015161033d565b82828151811061071c5761071c611675565b6020908102919091010152610730816116a1565b90506106c5565b509392505050565b6006546001600160a01b031633146107995760405162461bcd60e51b815260206004820152601660248201527f596f75206172656e2774207468652077696e6e6572210000000000000000000060448201526064016103a4565b6008546005546040516001600160a01b039092169181156108fc0291906000818181858888f193505050501580156107d5573d6000803e3d6000fd5b506006546003546040805160208101909152600081526108059230926001600160a01b03909116916001906108e1565b33600090815260096020526040812055565b600454811161088e5760405162461bcd60e51b815260206004820152603e60248201527f42696420706c61636564206d75737420626520686967686572207468616e207460448201527f6865206576616c756174696f6e206f66207468652074696d657374616d70000060648201526084016103a4565b3360009081526009602052604090208190556005548111156108cf5760058190556006805473ffffffffffffffffffffffffffffffffffffffff1916331790555b50565b6108dd338383610bcb565b5050565b6001600160a01b0385163314806108fd57506108fd8533610296565b6109605760405162461bcd60e51b815260206004820152602e60248201527f455243313135353a2063616c6c6572206973206e6f7420746f6b656e206f776e60448201526d195c881bdc88185c1c1c9bdd995960921b60648201526084016103a4565b6105468585858585610cab565b81518351146109cf5760405162461bcd60e51b815260206004820152602860248201527f455243313135353a2069647320616e6420616d6f756e7473206c656e677468206044820152670dad2e6dac2e8c6d60c31b60648201526084016103a4565b6001600160a01b038416610a335760405162461bcd60e51b815260206004820152602560248201527f455243313135353a207472616e7366657220746f20746865207a65726f206164604482015264647265737360d81b60648201526084016103a4565b3360005b8451811015610b5d576000858281518110610a5457610a54611675565b602002602001015190506000858381518110610a7257610a72611675565b602090810291909101810151600084815280835260408082206001600160a01b038e168352909352919091205490915081811015610b055760405162461bcd60e51b815260206004820152602a60248201527f455243313135353a20696e73756666696369656e742062616c616e636520666f60448201526939103a3930b739b332b960b11b60648201526084016103a4565b6000838152602081815260408083206001600160a01b038e8116855292528083208585039055908b16825281208054849290610b429084906116ba565b9250508190555050505080610b56906116a1565b9050610a37565b50846001600160a01b0316866001600160a01b0316826001600160a01b03167f4a39dc06d4c0dbc64b70af90fd698a233a518aa5d07e595d983b8c0526c8f7fb8787604051610bad9291906116cd565b60405180910390a4610bc3818787878787610e56565b505050505050565b816001600160a01b0316836001600160a01b031603610c3e5760405162461bcd60e51b815260206004820152602960248201527f455243313135353a2073657474696e6720617070726f76616c20737461747573604482015268103337b91039b2b63360b91b60648201526084016103a4565b6001600160a01b03838116600081815260016020908152604080832094871680845294825291829020805460ff191686151590811790915591519182527f17307eab39ab6107e8899845ad3d59bd9653f200f220920489ca2b5937696c31910160405180910390a3505050565b6001600160a01b038416610d0f5760405162461bcd60e51b815260206004820152602560248201527f455243313135353a207472616e7366657220746f20746865207a65726f206164604482015264647265737360d81b60648201526084016103a4565b336000610d1b85611004565b90506000610d2885611004565b90506000868152602081815260408083206001600160a01b038c16845290915290205485811015610dae5760405162461bcd60e51b815260206004820152602a60248201527f455243313135353a20696e73756666696369656e742062616c616e636520666f60448201526939103a3930b739b332b960b11b60648201526084016103a4565b6000878152602081815260408083206001600160a01b038d8116855292528083208985039055908a16825281208054889290610deb9084906116ba565b909155505060408051888152602081018890526001600160a01b03808b16928c821692918816917fc3d58168c5ae7397731d063d5bbf3d657854427343f4c083240f7aacaa2d0f62910160405180910390a4610e4b848a8a8a8a8a61104f565b505050505050505050565b6001600160a01b0384163b15610bc35760405163bc197c8160e01b81526001600160a01b0385169063bc197c8190610e9a90899089908890889088906004016116fb565b6020604051808303816000875af1925050508015610ed5575060408051601f3d908101601f19168201909252610ed291810190611759565b60015b610f8a57610ee1611776565b806308c379a003610f1a5750610ef5611792565b80610f005750610f1c565b8060405162461bcd60e51b81526004016103a4919061122a565b505b60405162461bcd60e51b815260206004820152603460248201527f455243313135353a207472616e7366657220746f206e6f6e2d4552433131353560448201527f526563656976657220696d706c656d656e74657200000000000000000000000060648201526084016103a4565b6001600160e01b0319811663bc197c8160e01b14610ffb5760405162461bcd60e51b815260206004820152602860248201527f455243313135353a204552433131353552656365697665722072656a656374656044820152676420746f6b656e7360c01b60648201526084016103a4565b50505050505050565b6040805160018082528183019092526060916000919060208083019080368337019050509050828160008151811061103e5761103e611675565b602090810291909101015292915050565b6001600160a01b0384163b15610bc35760405163f23a6e6160e01b81526001600160a01b0385169063f23a6e6190611093908990899088908890889060040161181c565b6020604051808303816000875af19250505080156110ce575060408051601f3d908101601f191682019092526110cb91810190611759565b60015b6110da57610ee1611776565b6001600160e01b0319811663f23a6e6160e01b14610ffb5760405162461bcd60e51b815260206004820152602860248201527f455243313135353a204552433131353552656365697665722072656a656374656044820152676420746f6b656e7360c01b60648201526084016103a4565b80356001600160a01b038116811461116257600080fd5b919050565b6000806040838503121561117a57600080fd5b6111838361114b565b946020939093013593505050565b6001600160e01b0319811681146108cf57600080fd5b6000602082840312156111b957600080fd5b81356111c481611191565b9392505050565b6000602082840312156111dd57600080fd5b5035919050565b6000815180845260005b8181101561120a576020818501810151868301820152016111ee565b506000602082860101526020601f19601f83011685010191505092915050565b6020815260006111c460208301846111e4565b634e487b7160e01b600052604160045260246000fd5b601f8201601f1916810167ffffffffffffffff811182821017156112795761127961123d565b6040525050565b600067ffffffffffffffff82111561129a5761129a61123d565b5060051b60200190565b600082601f8301126112b557600080fd5b813560206112c282611280565b6040516112cf8282611253565b83815260059390931b85018201928281019150868411156112ef57600080fd5b8286015b8481101561130a57803583529183019183016112f3565b509695505050505050565b600082601f83011261132657600080fd5b813567ffffffffffffffff8111156113405761134061123d565b604051611357601f8301601f191660200182611253565b81815284602083860101111561136c57600080fd5b816020850160208301376000918101602001919091529392505050565b600080600080600060a086880312156113a157600080fd5b6113aa8661114b565b94506113b86020870161114b565b9350604086013567ffffffffffffffff808211156113d557600080fd5b6113e189838a016112a4565b945060608801359150808211156113f757600080fd5b61140389838a016112a4565b9350608088013591508082111561141957600080fd5b5061142688828901611315565b9150509295509295909350565b6000806040838503121561144657600080fd5b823567ffffffffffffffff8082111561145e57600080fd5b818501915085601f83011261147257600080fd5b8135602061147f82611280565b60405161148c8282611253565b83815260059390931b85018201928281019150898411156114ac57600080fd5b948201945b838610156114d1576114c28661114b565b825294820194908201906114b1565b965050860135925050808211156114e757600080fd5b506114f4858286016112a4565b9150509250929050565b600081518084526020808501945080840160005b8381101561152e57815187529582019590820190600101611512565b509495945050505050565b6020815260006111c460208301846114fe565b6000806040838503121561155f57600080fd5b6115688361114b565b91506020830135801515811461157d57600080fd5b809150509250929050565b6000806040838503121561159b57600080fd5b6115a48361114b565b91506115b26020840161114b565b90509250929050565b600080600080600060a086880312156115d357600080fd5b6115dc8661114b565b94506115ea6020870161114b565b93506040860135925060608601359150608086013567ffffffffffffffff81111561161457600080fd5b61142688828901611315565b60006020828403121561163257600080fd5b6111c48261114b565b600181811c9082168061164f57607f821691505b60208210810361166f57634e487b7160e01b600052602260045260246000fd5b50919050565b634e487b7160e01b600052603260045260246000fd5b634e487b7160e01b600052601160045260246000fd5b6000600182016116b3576116b361168b565b5060010190565b808201808211156103d0576103d061168b565b6040815260006116e060408301856114fe565b82810360208401526116f281856114fe565b95945050505050565b60006001600160a01b03808816835280871660208401525060a0604083015261172760a08301866114fe565b828103606084015261173981866114fe565b9050828103608084015261174d81856111e4565b98975050505050505050565b60006020828403121561176b57600080fd5b81516111c481611191565b600060033d111561178f5760046000803e5060005160e01c5b90565b600060443d10156117a05790565b6040516003193d81016004833e81513d67ffffffffffffffff81602484011181841117156117d057505050505090565b82850191508151818111156117e85750505050505090565b843d87010160208285010111156118025750505050505090565b61181160208286010187611253565b509095945050505050565b60006001600160a01b03808816835280871660208401525084604083015283606083015260a0608083015261185460a08301846111e4565b97965050505050505056fea2646970667358221220713b7d4ea1acc93b720fb85a6626c32d4aa15b242dc116589e94a3790ae8723864736f6c63430008140033a26469706673582212205077d66f698526a0f5671e032bdc9dc0a2671d28bdfba7d3d847af1fd4c2778164736f6c63430008140033",
  "linkReferences": {},
  "deployedLinkReferences": {}
}