{
  "_format": "hh-sol-artifact-1",
  "contractName": "AuctionEstate",
  "sourceName": "contracts/AuctionEstate.sol",
  "abi": [
    {
      "inputs": [
        {
          "internalType": "uint256",
          "name": "_id",
          "type": "uint256"
        },
        {
          "internalType": "uint256",
          "name": "_evaluation",
          "type": "uint256"
        },
        {
          "internalType": "uint256",
          "name": "_timestamp",
          "type": "uint256"
        },
        {
          "internalType": "address payable",
          "name": "owner",
          "type": "address"
        }
      ],
      "stateMutability": "nonpayable",
      "type": "constructor"
    },
    {
      "anonymous": false,
      "inputs": [
        {
          "indexed": true,
          "internalType": "address",
          "name": "account",
          "type": "address"
        },
        {
          "indexed": true,
          "internalType": "address",
          "name": "operator",
          "type": "address"
        },
        {
          "indexed": false,
          "internalType": "bool",
          "name": "approved",
          "type": "bool"
        }
      ],
      "name": "ApprovalForAll",
      "type": "event"
    },
    {
      "anonymous": false,
      "inputs": [
        {
          "indexed": true,
          "internalType": "address",
          "name": "operator",
          "type": "address"
        },
        {
          "indexed": true,
          "internalType": "address",
          "name": "from",
          "type": "address"
        },
        {
          "indexed": true,
          "internalType": "address",
          "name": "to",
          "type": "address"
        },
        {
          "indexed": false,
          "internalType": "uint256[]",
          "name": "ids",
          "type": "uint256[]"
        },
        {
          "indexed": false,
          "internalType": "uint256[]",
          "name": "values",
          "type": "uint256[]"
        }
      ],
      "name": "TransferBatch",
      "type": "event"
    },
    {
      "anonymous": false,
      "inputs": [
        {
          "indexed": true,
          "internalType": "address",
          "name": "operator",
          "type": "address"
        },
        {
          "indexed": true,
          "internalType": "address",
          "name": "from",
          "type": "address"
        },
        {
          "indexed": true,
          "internalType": "address",
          "name": "to",
          "type": "address"
        },
        {
          "indexed": false,
          "internalType": "uint256",
          "name": "id",
          "type": "uint256"
        },
        {
          "indexed": false,
          "internalType": "uint256",
          "name": "value",
          "type": "uint256"
        }
      ],
      "name": "TransferSingle",
      "type": "event"
    },
    {
      "anonymous": false,
      "inputs": [
        {
          "indexed": false,
          "internalType": "string",
          "name": "value",
          "type": "string"
        },
        {
          "indexed": true,
          "internalType": "uint256",
          "name": "id",
          "type": "uint256"
        }
      ],
      "name": "URI",
      "type": "event"
    },
    {
      "inputs": [
        {
          "internalType": "address",
          "name": "account",
          "type": "address"
        },
        {
          "internalType": "uint256",
          "name": "id",
          "type": "uint256"
        }
      ],
      "name": "balanceOf",
      "outputs": [
        {
          "internalType": "uint256",
          "name": "",
          "type": "uint256"
        }
      ],
      "stateMutability": "view",
      "type": "function"
    },
    {
      "inputs": [
        {
          "internalType": "address[]",
          "name": "accounts",
          "type": "address[]"
        },
        {
          "internalType": "uint256[]",
          "name": "ids",
          "type": "uint256[]"
        }
      ],
      "name": "balanceOfBatch",
      "outputs": [
        {
          "internalType": "uint256[]",
          "name": "",
          "type": "uint256[]"
        }
      ],
      "stateMutability": "view",
      "type": "function"
    },
    {
      "inputs": [],
      "name": "claimPrize",
      "outputs": [],
      "stateMutability": "payable",
      "type": "function"
    },
    {
      "inputs": [],
      "name": "declareWinner",
      "outputs": [
        {
          "internalType": "address payable",
          "name": "",
          "type": "address"
        }
      ],
      "stateMutability": "view",
      "type": "function"
    },
    {
      "inputs": [],
      "name": "getAllBidders",
      "outputs": [
        {
          "internalType": "address payable[]",
          "name": "",
          "type": "address[]"
        }
      ],
      "stateMutability": "view",
      "type": "function"
    },
    {
      "inputs": [],
      "name": "getAuctionDetails",
      "outputs": [
        {
          "internalType": "uint256",
          "name": "",
          "type": "uint256"
        },
        {
          "internalType": "uint256",
          "name": "",
          "type": "uint256"
        },
        {
          "internalType": "uint256",
          "name": "",
          "type": "uint256"
        },
        {
          "internalType": "address payable",
          "name": "",
          "type": "address"
        },
        {
          "internalType": "address payable",
          "name": "",
          "type": "address"
        },
        {
          "internalType": "uint256",
          "name": "",
          "type": "uint256"
        }
      ],
      "stateMutability": "view",
      "type": "function"
    },
    {
      "inputs": [
        {
          "internalType": "address payable",
          "name": "bidder",
          "type": "address"
        }
      ],
      "name": "getBidDetails",
      "outputs": [
        {
          "internalType": "uint256",
          "name": "",
          "type": "uint256"
        }
      ],
      "stateMutability": "view",
      "type": "function"
    },
    {
      "inputs": [
        {
          "internalType": "address",
          "name": "account",
          "type": "address"
        },
        {
          "internalType": "address",
          "name": "operator",
          "type": "address"
        }
      ],
      "name": "isApprovedForAll",
      "outputs": [
        {
          "internalType": "bool",
          "name": "",
          "type": "bool"
        }
      ],
      "stateMutability": "view",
      "type": "function"
    },
    {
      "inputs": [
        {
          "internalType": "address",
          "name": "",
          "type": "address"
        },
        {
          "internalType": "address",
          "name": "",
          "type": "address"
        },
        {
          "internalType": "uint256[]",
          "name": "",
          "type": "uint256[]"
        },
        {
          "internalType": "uint256[]",
          "name": "",
          "type": "uint256[]"
        },
        {
          "internalType": "bytes",
          "name": "",
          "type": "bytes"
        }
      ],
      "name": "onERC1155BatchReceived",
      "outputs": [
        {
          "internalType": "bytes4",
          "name": "",
          "type": "bytes4"
        }
      ],
      "stateMutability": "nonpayable",
      "type": "function"
    },
    {
      "inputs": [
        {
          "internalType": "address",
          "name": "",
          "type": "address"
        },
        {
          "internalType": "address",
          "name": "",
          "type": "address"
        },
        {
          "internalType": "uint256",
          "name": "",
          "type": "uint256"
        },
        {
          "internalType": "uint256",
          "name": "",
          "type": "uint256"
        },
        {
          "internalType": "bytes",
          "name": "",
          "type": "bytes"
        }
      ],
      "name": "onERC1155Received",
      "outputs": [
        {
          "internalType": "bytes4",
          "name": "",
          "type": "bytes4"
        }
      ],
      "stateMutability": "nonpayable",
      "type": "function"
    },
    {
      "inputs": [
        {
          "internalType": "uint256",
          "name": "bid",
          "type": "uint256"
        }
      ],
      "name": "placeBid",
      "outputs": [],
      "stateMutability": "payable",
      "type": "function"
    },
    {
      "inputs": [
        {
          "internalType": "address",
          "name": "from",
          "type": "address"
        },
        {
          "internalType": "address",
          "name": "to",
          "type": "address"
        },
        {
          "internalType": "uint256[]",
          "name": "ids",
          "type": "uint256[]"
        },
        {
          "internalType": "uint256[]",
          "name": "amounts",
          "type": "uint256[]"
        },
        {
          "internalType": "bytes",
          "name": "data",
          "type": "bytes"
        }
      ],
      "name": "safeBatchTransferFrom",
      "outputs": [],
      "stateMutability": "nonpayable",
      "type": "function"
    },
    {
      "inputs": [
        {
          "internalType": "address",
          "name": "from",
          "type": "address"
        },
        {
          "internalType": "address",
          "name": "to",
          "type": "address"
        },
        {
          "internalType": "uint256",
          "name": "id",
          "type": "uint256"
        },
        {
          "internalType": "uint256",
          "name": "amount",
          "type": "uint256"
        },
        {
          "internalType": "bytes",
          "name": "data",
          "type": "bytes"
        }
      ],
      "name": "safeTransferFrom",
      "outputs": [],
      "stateMutability": "nonpayable",
      "type": "function"
    },
    {
      "inputs": [
        {
          "internalType": "address",
          "name": "operator",
          "type": "address"
        },
        {
          "internalType": "bool",
          "name": "approved",
          "type": "bool"
        }
      ],
      "name": "setApprovalForAll",
      "outputs": [],
      "stateMutability": "nonpayable",
      "type": "function"
    },
    {
      "inputs": [
        {
          "internalType": "bytes4",
          "name": "interfaceId",
          "type": "bytes4"
        }
      ],
      "name": "supportsInterface",
      "outputs": [
        {
          "internalType": "bool",
          "name": "",
          "type": "bool"
        }
      ],
      "stateMutability": "view",
      "type": "function"
    },
    {
      "inputs": [
        {
          "internalType": "uint256",
          "name": "",
          "type": "uint256"
        }
      ],
      "name": "uri",
      "outputs": [
        {
          "internalType": "string",
          "name": "",
          "type": "string"
        }
      ],
      "stateMutability": "view",
      "type": "function"
    },
    {
      "inputs": [],
      "name": "withdrawMyFunds",
      "outputs": [],
      "stateMutability": "payable",
      "type": "function"
    }
  ],
  "bytecode": "0x60806040523480156200001157600080fd5b5060405162001c3c38038062001c3c83398101604081905262000034916200009a565b6040805160208101909152600081526200004e8162000088565b506003939093556004919091556007556000600555600880546001600160a01b0319166001600160a01b039092169190911790556200025c565b600262000096828262000190565b5050565b60008060008060808587031215620000b157600080fd5b845160208601516040870151606088015192965090945092506001600160a01b0381168114620000e057600080fd5b939692955090935050565b634e487b7160e01b600052604160045260246000fd5b600181811c908216806200011657607f821691505b6020821081036200013757634e487b7160e01b600052602260045260246000fd5b50919050565b601f8211156200018b57600081815260208120601f850160051c81016020861015620001665750805b601f850160051c820191505b81811015620001875782815560010162000172565b5050505b505050565b81516001600160401b03811115620001ac57620001ac620000eb565b620001c481620001bd845462000101565b846200013d565b602080601f831160018114620001fc5760008415620001e35750858301515b600019600386901b1c1916600185901b17855562000187565b600085815260208120601f198616915b828110156200022d578886015182559484019460019091019084016200020c565b50858210156200024c5787850151600019600388901b60f8161c191681555b5050505050600190811b01905550565b6119d0806200026c6000396000f3fe6080604052600436106100fd5760003560e01c80634e1273f411610095578063a22cb46511610064578063a22cb465146102dc578063bc197c81146102fc578063e985e9c514610341578063f23a6e611461038a578063f242432a146103b657600080fd5b80634e1273f41461025e57806370740ac91461028b5780638d07ae9f146102935780639979ef45146102c957600080fd5b80632eb2c2d6116100d15780632eb2c2d6146101ba5780633a6dcea2146101dc5780633a79d2e5146102345780634935e7401461025657600080fd5b8062fdd58e1461010257806301ffc9a7146101355780630e89341c1461016557806314034bd214610192575b600080fd5b34801561010e57600080fd5b5061012261011d36600461124a565b6103d6565b6040519081526020015b60405180910390f35b34801561014157600080fd5b5061015561015036600461128c565b61046f565b604051901515815260200161012c565b34801561017157600080fd5b506101856101803660046112b0565b6104bf565b60405161012c919061130f565b34801561019e57600080fd5b506006546040516001600160a01b03909116815260200161012c565b3480156101c657600080fd5b506101da6101d536600461146e565b610553565b005b3480156101e857600080fd5b50600354600454600554600854600654600754604080519687526020870195909552938501929092526001600160a01b03908116606085015216608083015260a082015260c00161012c565b34801561024057600080fd5b506102496105e6565b60405161012c919061151c565b6101da610648565b34801561026a57600080fd5b5061027e610279366004611569565b610710565b60405161012c9190611671565b6101da61083a565b34801561029f57600080fd5b506101226102ae366004611684565b6001600160a01b03166000908152600a602052604090205490565b6101da6102d73660046112b0565b6108cf565b3480156102e857600080fd5b506101da6102f73660046116a1565b6109bc565b34801561030857600080fd5b5061032861031736600461146e565b63bc197c8160e01b95945050505050565b6040516001600160e01b0319909116815260200161012c565b34801561034d57600080fd5b5061015561035c3660046116df565b6001600160a01b03918216600090815260016020908152604080832093909416825291909152205460ff1690565b34801561039657600080fd5b506103286103a536600461170d565b63f23a6e6160e01b95945050505050565b3480156103c257600080fd5b506101da6103d136600461170d565b6109cb565b60006001600160a01b0383166104465760405162461bcd60e51b815260206004820152602a60248201527f455243313135353a2061646472657373207a65726f206973206e6f742061207660448201526930b634b21037bbb732b960b11b60648201526084015b60405180910390fd5b506000818152602081815260408083206001600160a01b03861684529091529020545b92915050565b60006001600160e01b03198216636cdb3d1360e11b14806104a057506001600160e01b031982166303a24d0760e21b145b8061046957506301ffc9a760e01b6001600160e01b0319831614610469565b6060600280546104ce90611776565b80601f01602080910402602001604051908101604052809291908181526020018280546104fa90611776565b80156105475780601f1061051c57610100808354040283529160200191610547565b820191906000526020600020905b81548152906001019060200180831161052a57829003601f168201915b50505050509050919050565b6001600160a01b03851633148061056f575061056f853361035c565b6105d25760405162461bcd60e51b815260206004820152602e60248201527f455243313135353a2063616c6c6572206973206e6f7420746f6b656e206f776e60448201526d195c881bdc88185c1c1c9bdd995960921b606482015260840161043d565b6105df8585858585610a57565b5050505050565b6060600980548060200260200160405190810160405280929190818152602001828054801561063e57602002820191906000526020600020905b81546001600160a01b03168152600190910190602001808311610620575b5050505050905090565b6006546001600160a01b0316331461070e57336000908152600a6020526040812054908190036106ce5760405162461bcd60e51b815260206004820152602b60248201527f596f752068617665206e6f7420706c6163656420616e792062657420696e207460448201526a3434b99030bab1ba34b7b760a91b606482015260840161043d565b604051339082156108fc029083906000818181858888f193505050501580156106fb573d6000803e3d6000fd5b5050336000908152600a60205260408120555b565b606081518351146107755760405162461bcd60e51b815260206004820152602960248201527f455243313135353a206163636f756e747320616e6420696473206c656e677468604482015268040dad2e6dac2e8c6d60bb1b606482015260840161043d565b6000835167ffffffffffffffff81111561079157610791611322565b6040519080825280602002602001820160405280156107ba578160200160208202803683370190505b50905060005b8451811015610832576108058582815181106107de576107de6117b0565b60200260200101518583815181106107f8576107f86117b0565b60200260200101516103d6565b828281518110610817576108176117b0565b602090810291909101015261082b816117dc565b90506107c0565b509392505050565b6006546001600160a01b0316330361070e576008546005546040516001600160a01b039092169181156108fc0291906000818181858888f19350505050158015610888573d6000803e3d6000fd5b506108bd30600660009054906101000a90046001600160a01b03166003546000604051806020016040528060008152506109cb565b336000908152600a6020526040812055565b60045481116109465760405162461bcd60e51b815260206004820152603e60248201527f42696420706c61636564206d75737420626520686967686572207468616e207460448201527f6865206576616c756174696f6e206f66207468652074696d657374616d700000606482015260840161043d565b336000818152600a602052604081208390556009805460018101825591527f6e1540171b6c0c960b71a7020d9f60077f6af931a8bbf590da0223dacf75c7af0180546001600160a01b03191690911790556005548111156109b9576005819055600680546001600160a01b031916331790555b50565b6109c7338383610cb5565b5050565b6001600160a01b0385163314806109e757506109e7853361035c565b610a4a5760405162461bcd60e51b815260206004820152602e60248201527f455243313135353a2063616c6c6572206973206e6f7420746f6b656e206f776e60448201526d195c881bdc88185c1c1c9bdd995960921b606482015260840161043d565b6105df8585858585610d95565b8151835114610ab95760405162461bcd60e51b815260206004820152602860248201527f455243313135353a2069647320616e6420616d6f756e7473206c656e677468206044820152670dad2e6dac2e8c6d60c31b606482015260840161043d565b6001600160a01b038416610b1d5760405162461bcd60e51b815260206004820152602560248201527f455243313135353a207472616e7366657220746f20746865207a65726f206164604482015264647265737360d81b606482015260840161043d565b3360005b8451811015610c47576000858281518110610b3e57610b3e6117b0565b602002602001015190506000858381518110610b5c57610b5c6117b0565b602090810291909101810151600084815280835260408082206001600160a01b038e168352909352919091205490915081811015610bef5760405162461bcd60e51b815260206004820152602a60248201527f455243313135353a20696e73756666696369656e742062616c616e636520666f60448201526939103a3930b739b332b960b11b606482015260840161043d565b6000838152602081815260408083206001600160a01b038e8116855292528083208585039055908b16825281208054849290610c2c9084906117f5565b9250508190555050505080610c40906117dc565b9050610b21565b50846001600160a01b0316866001600160a01b0316826001600160a01b03167f4a39dc06d4c0dbc64b70af90fd698a233a518aa5d07e595d983b8c0526c8f7fb8787604051610c97929190611808565b60405180910390a4610cad818787878787610f40565b505050505050565b816001600160a01b0316836001600160a01b031603610d285760405162461bcd60e51b815260206004820152602960248201527f455243313135353a2073657474696e6720617070726f76616c20737461747573604482015268103337b91039b2b63360b91b606482015260840161043d565b6001600160a01b03838116600081815260016020908152604080832094871680845294825291829020805460ff191686151590811790915591519182527f17307eab39ab6107e8899845ad3d59bd9653f200f220920489ca2b5937696c31910160405180910390a3505050565b6001600160a01b038416610df95760405162461bcd60e51b815260206004820152602560248201527f455243313135353a207472616e7366657220746f20746865207a65726f206164604482015264647265737360d81b606482015260840161043d565b336000610e05856110ee565b90506000610e12856110ee565b90506000868152602081815260408083206001600160a01b038c16845290915290205485811015610e985760405162461bcd60e51b815260206004820152602a60248201527f455243313135353a20696e73756666696369656e742062616c616e636520666f60448201526939103a3930b739b332b960b11b606482015260840161043d565b6000878152602081815260408083206001600160a01b038d8116855292528083208985039055908a16825281208054889290610ed59084906117f5565b909155505060408051888152602081018890526001600160a01b03808b16928c821692918816917fc3d58168c5ae7397731d063d5bbf3d657854427343f4c083240f7aacaa2d0f62910160405180910390a4610f35848a8a8a8a8a611139565b505050505050505050565b6001600160a01b0384163b15610cad5760405163bc197c8160e01b81526001600160a01b0385169063bc197c8190610f849089908990889088908890600401611836565b6020604051808303816000875af1925050508015610fbf575060408051601f3d908101601f19168201909252610fbc91810190611894565b60015b61107457610fcb6118b1565b806308c379a0036110045750610fdf6118cd565b80610fea5750611006565b8060405162461bcd60e51b815260040161043d919061130f565b505b60405162461bcd60e51b815260206004820152603460248201527f455243313135353a207472616e7366657220746f206e6f6e2d4552433131353560448201527f526563656976657220696d706c656d656e746572000000000000000000000000606482015260840161043d565b6001600160e01b0319811663bc197c8160e01b146110e55760405162461bcd60e51b815260206004820152602860248201527f455243313135353a204552433131353552656365697665722072656a656374656044820152676420746f6b656e7360c01b606482015260840161043d565b50505050505050565b60408051600180825281830190925260609160009190602080830190803683370190505090508281600081518110611128576111286117b0565b602090810291909101015292915050565b6001600160a01b0384163b15610cad5760405163f23a6e6160e01b81526001600160a01b0385169063f23a6e619061117d9089908990889088908890600401611957565b6020604051808303816000875af19250505080156111b8575060408051601f3d908101601f191682019092526111b591810190611894565b60015b6111c457610fcb6118b1565b6001600160e01b0319811663f23a6e6160e01b146110e55760405162461bcd60e51b815260206004820152602860248201527f455243313135353a204552433131353552656365697665722072656a656374656044820152676420746f6b656e7360c01b606482015260840161043d565b6001600160a01b03811681146109b957600080fd5b6000806040838503121561125d57600080fd5b823561126881611235565b946020939093013593505050565b6001600160e01b0319811681146109b957600080fd5b60006020828403121561129e57600080fd5b81356112a981611276565b9392505050565b6000602082840312156112c257600080fd5b5035919050565b6000815180845260005b818110156112ef576020818501810151868301820152016112d3565b506000602082860101526020601f19601f83011685010191505092915050565b6020815260006112a960208301846112c9565b634e487b7160e01b600052604160045260246000fd5b601f8201601f1916810167ffffffffffffffff8111828210171561135e5761135e611322565b6040525050565b600067ffffffffffffffff82111561137f5761137f611322565b5060051b60200190565b600082601f83011261139a57600080fd5b813560206113a782611365565b6040516113b48282611338565b83815260059390931b85018201928281019150868411156113d457600080fd5b8286015b848110156113ef57803583529183019183016113d8565b509695505050505050565b600082601f83011261140b57600080fd5b813567ffffffffffffffff81111561142557611425611322565b60405161143c601f8301601f191660200182611338565b81815284602083860101111561145157600080fd5b816020850160208301376000918101602001919091529392505050565b600080600080600060a0868803121561148657600080fd5b853561149181611235565b945060208601356114a181611235565b9350604086013567ffffffffffffffff808211156114be57600080fd5b6114ca89838a01611389565b945060608801359150808211156114e057600080fd5b6114ec89838a01611389565b9350608088013591508082111561150257600080fd5b5061150f888289016113fa565b9150509295509295909350565b6020808252825182820181905260009190848201906040850190845b8181101561155d5783516001600160a01b031683529284019291840191600101611538565b50909695505050505050565b6000806040838503121561157c57600080fd5b823567ffffffffffffffff8082111561159457600080fd5b818501915085601f8301126115a857600080fd5b813560206115b582611365565b6040516115c28282611338565b83815260059390931b85018201928281019150898411156115e257600080fd5b948201945b838610156116095785356115fa81611235565b825294820194908201906115e7565b9650508601359250508082111561161f57600080fd5b5061162c85828601611389565b9150509250929050565b600081518084526020808501945080840160005b838110156116665781518752958201959082019060010161164a565b509495945050505050565b6020815260006112a96020830184611636565b60006020828403121561169657600080fd5b81356112a981611235565b600080604083850312156116b457600080fd5b82356116bf81611235565b9150602083013580151581146116d457600080fd5b809150509250929050565b600080604083850312156116f257600080fd5b82356116fd81611235565b915060208301356116d481611235565b600080600080600060a0868803121561172557600080fd5b853561173081611235565b9450602086013561174081611235565b93506040860135925060608601359150608086013567ffffffffffffffff81111561176a57600080fd5b61150f888289016113fa565b600181811c9082168061178a57607f821691505b6020821081036117aa57634e487b7160e01b600052602260045260246000fd5b50919050565b634e487b7160e01b600052603260045260246000fd5b634e487b7160e01b600052601160045260246000fd5b6000600182016117ee576117ee6117c6565b5060010190565b80820180821115610469576104696117c6565b60408152600061181b6040830185611636565b828103602084015261182d8185611636565b95945050505050565b60006001600160a01b03808816835280871660208401525060a0604083015261186260a0830186611636565b82810360608401526118748186611636565b9050828103608084015261188881856112c9565b98975050505050505050565b6000602082840312156118a657600080fd5b81516112a981611276565b600060033d11156118ca5760046000803e5060005160e01c5b90565b600060443d10156118db5790565b6040516003193d81016004833e81513d67ffffffffffffffff816024840111818411171561190b57505050505090565b82850191508151818111156119235750505050505090565b843d870101602082850101111561193d5750505050505090565b61194c60208286010187611338565b509095945050505050565b60006001600160a01b03808816835280871660208401525084604083015283606083015260a0608083015261198f60a08301846112c9565b97965050505050505056fea2646970667358221220eedcf8da619a40247d35b57c20562f5cdcca4d1d031e533b6d35e929b0aa3b5564736f6c63430008140033",
  "linkReferences": {},
  "deployedLinkReferences": {}
}