{
  "_format": "hh-sol-artifact-1",
  "contractName": "WalletEstate",
  "sourceName": "contracts/WalletEstate.sol",
  "abi": [
    {
      "inputs": [
        {
          "internalType": "uint256",
          "name": "_id",
          "type": "uint256"
        },
        {
          "internalType": "uint256",
          "name": "_evaluation",
          "type": "uint256"
        }
      ],
      "stateMutability": "nonpayable",
      "type": "constructor"
    },
    {
      "anonymous": false,
      "inputs": [
        {
          "indexed": true,
          "internalType": "address",
          "name": "account",
          "type": "address"
        },
        {
          "indexed": true,
          "internalType": "address",
          "name": "operator",
          "type": "address"
        },
        {
          "indexed": false,
          "internalType": "bool",
          "name": "approved",
          "type": "bool"
        }
      ],
      "name": "ApprovalForAll",
      "type": "event"
    },
    {
      "anonymous": false,
      "inputs": [
        {
          "indexed": true,
          "internalType": "address",
          "name": "operator",
          "type": "address"
        },
        {
          "indexed": true,
          "internalType": "address",
          "name": "from",
          "type": "address"
        },
        {
          "indexed": true,
          "internalType": "address",
          "name": "to",
          "type": "address"
        },
        {
          "indexed": false,
          "internalType": "uint256[]",
          "name": "ids",
          "type": "uint256[]"
        },
        {
          "indexed": false,
          "internalType": "uint256[]",
          "name": "values",
          "type": "uint256[]"
        }
      ],
      "name": "TransferBatch",
      "type": "event"
    },
    {
      "anonymous": false,
      "inputs": [
        {
          "indexed": true,
          "internalType": "address",
          "name": "operator",
          "type": "address"
        },
        {
          "indexed": true,
          "internalType": "address",
          "name": "from",
          "type": "address"
        },
        {
          "indexed": true,
          "internalType": "address",
          "name": "to",
          "type": "address"
        },
        {
          "indexed": false,
          "internalType": "uint256",
          "name": "id",
          "type": "uint256"
        },
        {
          "indexed": false,
          "internalType": "uint256",
          "name": "value",
          "type": "uint256"
        }
      ],
      "name": "TransferSingle",
      "type": "event"
    },
    {
      "anonymous": false,
      "inputs": [
        {
          "indexed": false,
          "internalType": "string",
          "name": "value",
          "type": "string"
        },
        {
          "indexed": true,
          "internalType": "uint256",
          "name": "id",
          "type": "uint256"
        }
      ],
      "name": "URI",
      "type": "event"
    },
    {
      "inputs": [
        {
          "internalType": "address",
          "name": "account",
          "type": "address"
        },
        {
          "internalType": "uint256",
          "name": "id",
          "type": "uint256"
        }
      ],
      "name": "balanceOf",
      "outputs": [
        {
          "internalType": "uint256",
          "name": "",
          "type": "uint256"
        }
      ],
      "stateMutability": "view",
      "type": "function"
    },
    {
      "inputs": [
        {
          "internalType": "address[]",
          "name": "accounts",
          "type": "address[]"
        },
        {
          "internalType": "uint256[]",
          "name": "ids",
          "type": "uint256[]"
        }
      ],
      "name": "balanceOfBatch",
      "outputs": [
        {
          "internalType": "uint256[]",
          "name": "",
          "type": "uint256[]"
        }
      ],
      "stateMutability": "view",
      "type": "function"
    },
    {
      "inputs": [],
      "name": "getAllInvestors",
      "outputs": [
        {
          "internalType": "address payable[]",
          "name": "",
          "type": "address[]"
        }
      ],
      "stateMutability": "view",
      "type": "function"
    },
    {
      "inputs": [],
      "name": "getInvestmentDetails",
      "outputs": [
        {
          "internalType": "uint256",
          "name": "",
          "type": "uint256"
        },
        {
          "internalType": "uint256",
          "name": "",
          "type": "uint256"
        },
        {
          "internalType": "address payable",
          "name": "",
          "type": "address"
        }
      ],
      "stateMutability": "view",
      "type": "function"
    },
    {
      "inputs": [
        {
          "internalType": "address payable",
          "name": "investor",
          "type": "address"
        }
      ],
      "name": "getInvestmentDetails",
      "outputs": [
        {
          "internalType": "uint256",
          "name": "",
          "type": "uint256"
        }
      ],
      "stateMutability": "view",
      "type": "function"
    },
    {
      "inputs": [
        {
          "internalType": "address",
          "name": "account",
          "type": "address"
        },
        {
          "internalType": "address",
          "name": "operator",
          "type": "address"
        }
      ],
      "name": "isApprovedForAll",
      "outputs": [
        {
          "internalType": "bool",
          "name": "",
          "type": "bool"
        }
      ],
      "stateMutability": "view",
      "type": "function"
    },
    {
      "inputs": [
        {
          "internalType": "address",
          "name": "",
          "type": "address"
        },
        {
          "internalType": "address",
          "name": "",
          "type": "address"
        },
        {
          "internalType": "uint256[]",
          "name": "",
          "type": "uint256[]"
        },
        {
          "internalType": "uint256[]",
          "name": "",
          "type": "uint256[]"
        },
        {
          "internalType": "bytes",
          "name": "",
          "type": "bytes"
        }
      ],
      "name": "onERC1155BatchReceived",
      "outputs": [
        {
          "internalType": "bytes4",
          "name": "",
          "type": "bytes4"
        }
      ],
      "stateMutability": "nonpayable",
      "type": "function"
    },
    {
      "inputs": [
        {
          "internalType": "address",
          "name": "",
          "type": "address"
        },
        {
          "internalType": "address",
          "name": "",
          "type": "address"
        },
        {
          "internalType": "uint256",
          "name": "",
          "type": "uint256"
        },
        {
          "internalType": "uint256",
          "name": "",
          "type": "uint256"
        },
        {
          "internalType": "bytes",
          "name": "",
          "type": "bytes"
        }
      ],
      "name": "onERC1155Received",
      "outputs": [
        {
          "internalType": "bytes4",
          "name": "",
          "type": "bytes4"
        }
      ],
      "stateMutability": "nonpayable",
      "type": "function"
    },
    {
      "inputs": [
        {
          "internalType": "uint256",
          "name": "quantity",
          "type": "uint256"
        }
      ],
      "name": "purchaseShares",
      "outputs": [],
      "stateMutability": "payable",
      "type": "function"
    },
    {
      "inputs": [
        {
          "internalType": "address",
          "name": "from",
          "type": "address"
        },
        {
          "internalType": "address",
          "name": "to",
          "type": "address"
        },
        {
          "internalType": "uint256[]",
          "name": "ids",
          "type": "uint256[]"
        },
        {
          "internalType": "uint256[]",
          "name": "amounts",
          "type": "uint256[]"
        },
        {
          "internalType": "bytes",
          "name": "data",
          "type": "bytes"
        }
      ],
      "name": "safeBatchTransferFrom",
      "outputs": [],
      "stateMutability": "nonpayable",
      "type": "function"
    },
    {
      "inputs": [
        {
          "internalType": "address",
          "name": "from",
          "type": "address"
        },
        {
          "internalType": "address",
          "name": "to",
          "type": "address"
        },
        {
          "internalType": "uint256",
          "name": "id",
          "type": "uint256"
        },
        {
          "internalType": "uint256",
          "name": "amount",
          "type": "uint256"
        },
        {
          "internalType": "bytes",
          "name": "data",
          "type": "bytes"
        }
      ],
      "name": "safeTransferFrom",
      "outputs": [],
      "stateMutability": "nonpayable",
      "type": "function"
    },
    {
      "inputs": [
        {
          "internalType": "uint256",
          "name": "quantity",
          "type": "uint256"
        }
      ],
      "name": "sellShares",
      "outputs": [],
      "stateMutability": "payable",
      "type": "function"
    },
    {
      "inputs": [
        {
          "internalType": "address",
          "name": "operator",
          "type": "address"
        },
        {
          "internalType": "bool",
          "name": "approved",
          "type": "bool"
        }
      ],
      "name": "setApprovalForAll",
      "outputs": [],
      "stateMutability": "nonpayable",
      "type": "function"
    },
    {
      "inputs": [
        {
          "internalType": "bytes4",
          "name": "interfaceId",
          "type": "bytes4"
        }
      ],
      "name": "supportsInterface",
      "outputs": [
        {
          "internalType": "bool",
          "name": "",
          "type": "bool"
        }
      ],
      "stateMutability": "view",
      "type": "function"
    },
    {
      "inputs": [
        {
          "internalType": "address",
          "name": "receiver",
          "type": "address"
        },
        {
          "internalType": "uint256",
          "name": "quantity",
          "type": "uint256"
        }
      ],
      "name": "transferShares",
      "outputs": [],
      "stateMutability": "nonpayable",
      "type": "function"
    },
    {
      "inputs": [
        {
          "internalType": "uint256",
          "name": "",
          "type": "uint256"
        }
      ],
      "name": "uri",
      "outputs": [
        {
          "internalType": "string",
          "name": "",
          "type": "string"
        }
      ],
      "stateMutability": "view",
      "type": "function"
    }
  ],
  "bytecode": "0x60806040523480156200001157600080fd5b5060405162001dcb38038062001dcb833981016040819052620000349162000082565b6040805160208101909152600081526200004e8162000070565b50600391909155600455600580546001600160a01b0319163317905562000218565b60026200007e82826200014c565b5050565b600080604083850312156200009657600080fd5b505080516020909101519092909150565b634e487b7160e01b600052604160045260246000fd5b600181811c90821680620000d257607f821691505b602082108103620000f357634e487b7160e01b600052602260045260246000fd5b50919050565b601f8211156200014757600081815260208120601f850160051c81016020861015620001225750805b601f850160051c820191505b8181101562000143578281556001016200012e565b5050505b505050565b81516001600160401b03811115620001685762000168620000a7565b6200018081620001798454620000bd565b84620000f9565b602080601f831160018114620001b857600084156200019f5750858301515b600019600386901b1c1916600185901b17855562000143565b600085815260208120601f198616915b82811015620001e957888601518255948401946001909101908401620001c8565b5085821015620002085787850151600019600388901b60f8161c191681555b5050505050600190811b01905550565b611ba380620002286000396000f3fe6080604052600436106100f25760003560e01c806391a625231161008a578063df48981a11610059578063df48981a14610300578063e985e9c514610313578063f23a6e611461035c578063f242432a1461038857600080fd5b806391a6252314610243578063a22cb46514610279578063bc197c8114610299578063d0a2f2c4146102de57600080fd5b80634ba8ae81116100c65780634ba8ae81146101a95780634e1273f4146101bc57806380bb4ef4146101e95780638fcb4e5b1461022357600080fd5b8062fdd58e146100f757806301ffc9a71461012a5780630e89341c1461015a5780632eb2c2d614610187575b600080fd5b34801561010357600080fd5b506101176101123660046113d1565b6103a8565b6040519081526020015b60405180910390f35b34801561013657600080fd5b5061014a610145366004611413565b610441565b6040519015158152602001610121565b34801561016657600080fd5b5061017a610175366004611437565b610491565b6040516101219190611496565b34801561019357600080fd5b506101a76101a23660046115f5565b610525565b005b6101a76101b7366004611437565b6105b8565b3480156101c857600080fd5b506101dc6101d73660046116a3565b6106bc565b60405161012191906117ab565b3480156101f557600080fd5b506003546004546005546040805193845260208401929092526001600160a01b031690820152606001610121565b34801561022f57600080fd5b506101a761023e3660046113d1565b6107e6565b34801561024f57600080fd5b5061011761025e3660046117be565b6001600160a01b031660009081526006602052604090205490565b34801561028557600080fd5b506101a76102943660046117db565b6108d4565b3480156102a557600080fd5b506102c56102b43660046115f5565b63bc197c8160e01b95945050505050565b6040516001600160e01b03199091168152602001610121565b3480156102ea57600080fd5b506102f36108e3565b6040516101219190611819565b6101a761030e366004611437565b610945565b34801561031f57600080fd5b5061014a61032e366004611866565b6001600160a01b03918216600090815260016020908152604080832093909416825291909152205460ff1690565b34801561036857600080fd5b506102c5610377366004611894565b63f23a6e6160e01b95945050505050565b34801561039457600080fd5b506101a76103a3366004611894565b610b4f565b60006001600160a01b0383166104185760405162461bcd60e51b815260206004820152602a60248201527f455243313135353a2061646472657373207a65726f206973206e6f742061207660448201526930b634b21037bbb732b960b11b60648201526084015b60405180910390fd5b506000818152602081815260408083206001600160a01b03861684529091529020545b92915050565b60006001600160e01b03198216636cdb3d1360e11b148061047257506001600160e01b031982166303a24d0760e21b145b8061043b57506301ffc9a760e01b6001600160e01b031983161461043b565b6060600280546104a0906118fd565b80601f01602080910402602001604051908101604052809291908181526020018280546104cc906118fd565b80156105195780601f106104ee57610100808354040283529160200191610519565b820191906000526020600020905b8154815290600101906020018083116104fc57829003601f168201915b50505050509050919050565b6001600160a01b0385163314806105415750610541853361032e565b6105a45760405162461bcd60e51b815260206004820152602e60248201527f455243313135353a2063616c6c6572206973206e6f7420746f6b656e206f776e60448201526d195c881bdc88185c1c1c9bdd995960921b606482015260840161040f565b6105b18585858585610bdb565b5050505050565b336000908152600660205260409020548111156106175760405162461bcd60e51b815260206004820152601e60248201527f496e73756666696369656e742073686172657320746f20626520736f6c640000604482015260640161040f565b610634333060008460405180602001604052806000815250610b4f565b6000816064600454670de0b6b3a764000061064f919061194d565b6106599190611964565b610663919061194d565b604051909150339082156108fc029083906000818181858888f19350505050158015610693573d6000803e3d6000fd5b5033600090815260066020526040812080548492906106b3908490611986565b90915550505050565b606081518351146107215760405162461bcd60e51b815260206004820152602960248201527f455243313135353a206163636f756e747320616e6420696473206c656e677468604482015268040dad2e6dac2e8c6d60bb1b606482015260840161040f565b6000835167ffffffffffffffff81111561073d5761073d6114a9565b604051908082528060200260200182016040528015610766578160200160208202803683370190505b50905060005b84518110156107de576107b185828151811061078a5761078a611999565b60200260200101518583815181106107a4576107a4611999565b60200260200101516103a8565b8282815181106107c3576107c3611999565b60209081029190910101526107d7816119af565b905061076c565b509392505050565b3360009081526006602052604090205481111561086b5760405162461bcd60e51b815260206004820152603260248201527f496e73756666696369656e742073686172657320746f206265207472616e736660448201527f657272656420746f20726563657069656e740000000000000000000000000000606482015260840161040f565b610888338360008460405180602001604052806000815250610b4f565b33600090815260066020526040812080548392906108a7908490611986565b90915550506001600160a01b038216600090815260066020526040812080548392906106b39084906119c8565b6108df338383610e39565b5050565b6060600780548060200260200160405190810160405280929190818152602001828054801561093b57602002820191906000526020600020905b81546001600160a01b0316815260019091019060200180831161091d575b5050505050905090565b60648111156109bc5760405162461bcd60e51b815260206004820152603560248201527f4d6178696d756d206e756d626572206f6620736861726573207468617420636160448201527f6e20626520707572636861736564206973203130300000000000000000000000606482015260840161040f565b60008111610a325760405162461bcd60e51b815260206004820152603160248201527f4e756d626572206f6620736861726573207075726368617365642063616e6e6f60448201527f74206265207a65726f206f72206c657373000000000000000000000000000000606482015260840161040f565b610a3d3060006103a8565b8110610aa25760405162461bcd60e51b815260206004820152602e60248201527f5468657265206172656e27742073756666696369656e7420736861726573207460448201526d1bc81899481c1d5c98da185cd95960921b606482015260840161040f565b60405130903480156108fc02916000818181858888f19350505050158015610ace573d6000803e3d6000fd5b50610aec303360008460405180602001604052806000815250610b4f565b336000818152600660205260408120929092556007805460018101825592527fa66cc928b5edb82af9bd49922954155ab7b0942694bea4ce44661d9a8736c688909101805473ffffffffffffffffffffffffffffffffffffffff19169091179055565b6001600160a01b038516331480610b6b5750610b6b853361032e565b610bce5760405162461bcd60e51b815260206004820152602e60248201527f455243313135353a2063616c6c6572206973206e6f7420746f6b656e206f776e60448201526d195c881bdc88185c1c1c9bdd995960921b606482015260840161040f565b6105b18585858585610f19565b8151835114610c3d5760405162461bcd60e51b815260206004820152602860248201527f455243313135353a2069647320616e6420616d6f756e7473206c656e677468206044820152670dad2e6dac2e8c6d60c31b606482015260840161040f565b6001600160a01b038416610ca15760405162461bcd60e51b815260206004820152602560248201527f455243313135353a207472616e7366657220746f20746865207a65726f206164604482015264647265737360d81b606482015260840161040f565b3360005b8451811015610dcb576000858281518110610cc257610cc2611999565b602002602001015190506000858381518110610ce057610ce0611999565b602090810291909101810151600084815280835260408082206001600160a01b038e168352909352919091205490915081811015610d735760405162461bcd60e51b815260206004820152602a60248201527f455243313135353a20696e73756666696369656e742062616c616e636520666f60448201526939103a3930b739b332b960b11b606482015260840161040f565b6000838152602081815260408083206001600160a01b038e8116855292528083208585039055908b16825281208054849290610db09084906119c8565b9250508190555050505080610dc4906119af565b9050610ca5565b50846001600160a01b0316866001600160a01b0316826001600160a01b03167f4a39dc06d4c0dbc64b70af90fd698a233a518aa5d07e595d983b8c0526c8f7fb8787604051610e1b9291906119db565b60405180910390a4610e318187878787876110c4565b505050505050565b816001600160a01b0316836001600160a01b031603610eac5760405162461bcd60e51b815260206004820152602960248201527f455243313135353a2073657474696e6720617070726f76616c20737461747573604482015268103337b91039b2b63360b91b606482015260840161040f565b6001600160a01b03838116600081815260016020908152604080832094871680845294825291829020805460ff191686151590811790915591519182527f17307eab39ab6107e8899845ad3d59bd9653f200f220920489ca2b5937696c31910160405180910390a3505050565b6001600160a01b038416610f7d5760405162461bcd60e51b815260206004820152602560248201527f455243313135353a207472616e7366657220746f20746865207a65726f206164604482015264647265737360d81b606482015260840161040f565b336000610f8985611272565b90506000610f9685611272565b90506000868152602081815260408083206001600160a01b038c1684529091529020548581101561101c5760405162461bcd60e51b815260206004820152602a60248201527f455243313135353a20696e73756666696369656e742062616c616e636520666f60448201526939103a3930b739b332b960b11b606482015260840161040f565b6000878152602081815260408083206001600160a01b038d8116855292528083208985039055908a168252812080548892906110599084906119c8565b909155505060408051888152602081018890526001600160a01b03808b16928c821692918816917fc3d58168c5ae7397731d063d5bbf3d657854427343f4c083240f7aacaa2d0f62910160405180910390a46110b9848a8a8a8a8a6112bd565b505050505050505050565b6001600160a01b0384163b15610e315760405163bc197c8160e01b81526001600160a01b0385169063bc197c81906111089089908990889088908890600401611a09565b6020604051808303816000875af1925050508015611143575060408051601f3d908101601f1916820190925261114091810190611a67565b60015b6111f85761114f611a84565b806308c379a0036111885750611163611aa0565b8061116e575061118a565b8060405162461bcd60e51b815260040161040f9190611496565b505b60405162461bcd60e51b815260206004820152603460248201527f455243313135353a207472616e7366657220746f206e6f6e2d4552433131353560448201527f526563656976657220696d706c656d656e746572000000000000000000000000606482015260840161040f565b6001600160e01b0319811663bc197c8160e01b146112695760405162461bcd60e51b815260206004820152602860248201527f455243313135353a204552433131353552656365697665722072656a656374656044820152676420746f6b656e7360c01b606482015260840161040f565b50505050505050565b604080516001808252818301909252606091600091906020808301908036833701905050905082816000815181106112ac576112ac611999565b602090810291909101015292915050565b6001600160a01b0384163b15610e315760405163f23a6e6160e01b81526001600160a01b0385169063f23a6e61906113019089908990889088908890600401611b2a565b6020604051808303816000875af192505050801561133c575060408051601f3d908101601f1916820190925261133991810190611a67565b60015b6113485761114f611a84565b6001600160e01b0319811663f23a6e6160e01b146112695760405162461bcd60e51b815260206004820152602860248201527f455243313135353a204552433131353552656365697665722072656a656374656044820152676420746f6b656e7360c01b606482015260840161040f565b6001600160a01b03811681146113ce57600080fd5b50565b600080604083850312156113e457600080fd5b82356113ef816113b9565b946020939093013593505050565b6001600160e01b0319811681146113ce57600080fd5b60006020828403121561142557600080fd5b8135611430816113fd565b9392505050565b60006020828403121561144957600080fd5b5035919050565b6000815180845260005b818110156114765760208185018101518683018201520161145a565b506000602082860101526020601f19601f83011685010191505092915050565b6020815260006114306020830184611450565b634e487b7160e01b600052604160045260246000fd5b601f8201601f1916810167ffffffffffffffff811182821017156114e5576114e56114a9565b6040525050565b600067ffffffffffffffff821115611506576115066114a9565b5060051b60200190565b600082601f83011261152157600080fd5b8135602061152e826114ec565b60405161153b82826114bf565b83815260059390931b850182019282810191508684111561155b57600080fd5b8286015b84811015611576578035835291830191830161155f565b509695505050505050565b600082601f83011261159257600080fd5b813567ffffffffffffffff8111156115ac576115ac6114a9565b6040516115c3601f8301601f1916602001826114bf565b8181528460208386010111156115d857600080fd5b816020850160208301376000918101602001919091529392505050565b600080600080600060a0868803121561160d57600080fd5b8535611618816113b9565b94506020860135611628816113b9565b9350604086013567ffffffffffffffff8082111561164557600080fd5b61165189838a01611510565b9450606088013591508082111561166757600080fd5b61167389838a01611510565b9350608088013591508082111561168957600080fd5b5061169688828901611581565b9150509295509295909350565b600080604083850312156116b657600080fd5b823567ffffffffffffffff808211156116ce57600080fd5b818501915085601f8301126116e257600080fd5b813560206116ef826114ec565b6040516116fc82826114bf565b83815260059390931b850182019282810191508984111561171c57600080fd5b948201945b83861015611743578535611734816113b9565b82529482019490820190611721565b9650508601359250508082111561175957600080fd5b5061176685828601611510565b9150509250929050565b600081518084526020808501945080840160005b838110156117a057815187529582019590820190600101611784565b509495945050505050565b6020815260006114306020830184611770565b6000602082840312156117d057600080fd5b8135611430816113b9565b600080604083850312156117ee57600080fd5b82356117f9816113b9565b91506020830135801515811461180e57600080fd5b809150509250929050565b6020808252825182820181905260009190848201906040850190845b8181101561185a5783516001600160a01b031683529284019291840191600101611835565b50909695505050505050565b6000806040838503121561187957600080fd5b8235611884816113b9565b9150602083013561180e816113b9565b600080600080600060a086880312156118ac57600080fd5b85356118b7816113b9565b945060208601356118c7816113b9565b93506040860135925060608601359150608086013567ffffffffffffffff8111156118f157600080fd5b61169688828901611581565b600181811c9082168061191157607f821691505b60208210810361193157634e487b7160e01b600052602260045260246000fd5b50919050565b634e487b7160e01b600052601160045260246000fd5b808202811582820484141761043b5761043b611937565b60008261198157634e487b7160e01b600052601260045260246000fd5b500490565b8181038181111561043b5761043b611937565b634e487b7160e01b600052603260045260246000fd5b6000600182016119c1576119c1611937565b5060010190565b8082018082111561043b5761043b611937565b6040815260006119ee6040830185611770565b8281036020840152611a008185611770565b95945050505050565b60006001600160a01b03808816835280871660208401525060a06040830152611a3560a0830186611770565b8281036060840152611a478186611770565b90508281036080840152611a5b8185611450565b98975050505050505050565b600060208284031215611a7957600080fd5b8151611430816113fd565b600060033d1115611a9d5760046000803e5060005160e01c5b90565b600060443d1015611aae5790565b6040516003193d81016004833e81513d67ffffffffffffffff8160248401118184111715611ade57505050505090565b8285019150815181811115611af65750505050505090565b843d8701016020828501011115611b105750505050505090565b611b1f602082860101876114bf565b509095945050505050565b60006001600160a01b03808816835280871660208401525084604083015283606083015260a06080830152611b6260a0830184611450565b97965050505050505056fea2646970667358221220c460c5fc1f9b0eb27e0e89ae9b7a82b89ac5ea9793fafdcf8df724b8067f24ee64736f6c63430008140033",
  "linkReferences": {},
  "deployedLinkReferences": {}
}